{
  "address": "0x6dd4df4569aEc3e40FfbEee09602A12A9Ac3C697",
  "abi": [
    {
      "inputs": [
        {
          "internalType": "address",
          "name": "_fxChild",
          "type": "address"
        }
      ],
      "stateMutability": "nonpayable",
      "type": "constructor"
    },
    {
      "anonymous": false,
      "inputs": [
        {
          "indexed": false,
          "internalType": "bytes",
          "name": "message",
          "type": "bytes"
        }
      ],
      "name": "MessageSent",
      "type": "event"
    },
    {
      "anonymous": false,
      "inputs": [
        {
          "indexed": true,
          "internalType": "uint256",
          "name": "stateId",
          "type": "uint256"
        },
        {
          "indexed": true,
          "internalType": "address",
          "name": "sender",
          "type": "address"
        },
        {
          "indexed": false,
          "internalType": "bytes",
          "name": "data",
          "type": "bytes"
        }
      ],
      "name": "ReceivedMessagesFromRoot",
      "type": "event"
    },
    {
      "inputs": [],
      "name": "fxChild",
      "outputs": [
        {
          "internalType": "address",
          "name": "",
          "type": "address"
        }
      ],
      "stateMutability": "view",
      "type": "function"
    },
    {
      "inputs": [],
      "name": "fxRootTunnel",
      "outputs": [
        {
          "internalType": "address",
          "name": "",
          "type": "address"
        }
      ],
      "stateMutability": "view",
      "type": "function"
    },
    {
      "inputs": [
        {
          "internalType": "uint256",
          "name": "stateId",
          "type": "uint256"
        },
        {
          "internalType": "address",
          "name": "rootMessageSender",
          "type": "address"
        },
        {
          "internalType": "bytes",
          "name": "data",
          "type": "bytes"
        }
      ],
      "name": "processMessageFromRoot",
      "outputs": [],
      "stateMutability": "nonpayable",
      "type": "function"
    },
    {
      "inputs": [
        {
          "internalType": "address",
          "name": "_fxRootTunnel",
          "type": "address"
        }
      ],
      "name": "setFxRootTunnel",
      "outputs": [],
      "stateMutability": "nonpayable",
      "type": "function"
    }
  ],
  "transactionHash": "0xe786a8703885f8eeab9588cfe451de12756d659a5edb39e252f93b9576306364",
  "args": [
    "0x8397259c983751DAf40400790063935a11afa28a"
  ],
  "solcInputHash": "4c7f9dc329f99e135f77e42cc4a40df8",
  "bytecode": "0x608060405234801561001057600080fd5b506040516105b93803806105b983398101604081905261002f91610054565b600080546001600160a01b0319166001600160a01b0392909216919091179055610082565b600060208284031215610065578081fd5b81516001600160a01b038116811461007b578182fd5b9392505050565b610528806100916000396000f3fe608060405234801561001057600080fd5b506004361061004c5760003560e01c8063450d11f0146100515780637f1e9cb01461006f57806388837094146100775780639a7c4b711461008c575b600080fd5b61005961009f565b60405161006691906103dc565b60405180910390f35b6100596100ae565b61008a610085366004610275565b6100bd565b005b61008a61009a366004610358565b610111565b6000546001600160a01b031681565b6001546001600160a01b031681565b6001546001600160a01b0316156100ef5760405162461bcd60e51b81526004016100e690610464565b60405180910390fd5b600180546001600160a01b0319166001600160a01b0392909216919091179055565b6000546001600160a01b0316331461013b5760405162461bcd60e51b81526004016100e690610423565b61017c848484848080601f01602080910402602001604051908101604052809392919081815260200183838082843760009201919091525061018292505050565b50505050565b6060818060200190518101906101989190610298565b925050506101a5816101ed565b826001600160a01b0316847f94c58dcc5fd388fface430009b3a29575b2b5e4b756109eeb1fc41af5a31524d836040516101df91906103f0565b60405180910390a350505050565b805160205b81811015610270578083015160f81c6001820184015160601c601583018501516035840186015160558501870160008560008114610237576001811461024757610252565b6000808585888a5af19150610252565b6000808585895af491505b508061025d57600080fd5b50508060550185019450505050506101f2565b505050565b600060208284031215610286578081fd5b8135610291816104da565b9392505050565b6000806000606084860312156102ac578182fd5b83516102b7816104da565b60208501519093506102c8816104da565b604085015190925067ffffffffffffffff808211156102e5578283fd5b818601915086601f8301126102f8578283fd5b81518181111561030457fe5b604051601f8201601f19168101602001838111828210171561032257fe5b604052818152838201602001891015610339578485fd5b61034a8260208301602087016104ae565b809450505050509250925092565b6000806000806060858703121561036d578081fd5b84359350602085013561037f816104da565b9250604085013567ffffffffffffffff8082111561039b578283fd5b818701915087601f8301126103ae578283fd5b8135818111156103bc578384fd5b8860208285010111156103cd578384fd5b95989497505060200194505050565b6001600160a01b0391909116815260200190565b600060208252825180602084015261040f8160408501602087016104ae565b601f01601f19169190910160400192915050565b60208082526021908201527f4678426173654368696c6454756e6e656c3a20494e56414c49445f53454e44456040820152602960f91b606082015260800190565b6020808252602a908201527f4678426173654368696c6454756e6e656c3a20524f4f545f54554e4e454c5f4160408201526913149150511657d4d15560b21b606082015260800190565b60005b838110156104c95781810151838201526020016104b1565b8381111561017c5750506000910152565b6001600160a01b03811681146104ef57600080fd5b5056fea26469706673582212209d51d97fd16cac3c5c71ddcf5c7e9751fb3b388584c661b53a54e310e69695a464736f6c63430007030033",
  "devdoc": {
    "kind": "dev",
    "methods": {},
    "title": "EVMBridgeChild lives on the child chain and executes messages sent from the parent chain",
    "version": 1
  },
  "userdoc": {
    "events": {
      "ReceivedMessagesFromRoot(uint256,address,bytes)": {
        "notice": "Emitted when a message is sent from the child chain"
      }
    },
    "kind": "user",
    "methods": {},
    "version": 1
  },
  "storageLayout": {
    "storage": [
      {
        "astId": 1587,
        "contract": "contracts/EVMBridgeChild.sol:EVMBridgeChild",
        "label": "fxChild",
        "offset": 0,
        "slot": "0",
        "type": "t_address"
      },
      {
        "astId": 1589,
        "contract": "contracts/EVMBridgeChild.sol:EVMBridgeChild",
        "label": "fxRootTunnel",
        "offset": 0,
        "slot": "1",
        "type": "t_address"
      }
    ],
    "types": {
      "t_address": {
        "encoding": "inplace",
        "label": "address",
        "numberOfBytes": "20"
      }
    }
  }
}