{
  "address": "0x2BDb05351971f27bB2eBe599289D74f2EC93a00A",
  "abi": [
    {
      "anonymous": false,
      "inputs": [
        {
          "indexed": false,
          "internalType": "bytes",
          "name": "message",
          "type": "bytes"
        }
      ],
      "name": "MessageSent",
      "type": "event"
    },
    {
      "anonymous": false,
      "inputs": [
        {
          "indexed": false,
          "internalType": "bytes",
          "name": "data",
          "type": "bytes"
        }
      ],
      "name": "ReceivedMessagesFromRoot",
      "type": "event"
    },
    {
      "anonymous": false,
      "inputs": [
        {
          "indexed": true,
          "internalType": "bytes32",
          "name": "role",
          "type": "bytes32"
        },
        {
          "indexed": true,
          "internalType": "bytes32",
          "name": "previousAdminRole",
          "type": "bytes32"
        },
        {
          "indexed": true,
          "internalType": "bytes32",
          "name": "newAdminRole",
          "type": "bytes32"
        }
      ],
      "name": "RoleAdminChanged",
      "type": "event"
    },
    {
      "anonymous": false,
      "inputs": [
        {
          "indexed": true,
          "internalType": "bytes32",
          "name": "role",
          "type": "bytes32"
        },
        {
          "indexed": true,
          "internalType": "address",
          "name": "account",
          "type": "address"
        },
        {
          "indexed": true,
          "internalType": "address",
          "name": "sender",
          "type": "address"
        }
      ],
      "name": "RoleGranted",
      "type": "event"
    },
    {
      "anonymous": false,
      "inputs": [
        {
          "indexed": true,
          "internalType": "bytes32",
          "name": "role",
          "type": "bytes32"
        },
        {
          "indexed": true,
          "internalType": "address",
          "name": "account",
          "type": "address"
        },
        {
          "indexed": true,
          "internalType": "address",
          "name": "sender",
          "type": "address"
        }
      ],
      "name": "RoleRevoked",
      "type": "event"
    },
    {
      "inputs": [],
      "name": "DEFAULT_ADMIN_ROLE",
      "outputs": [
        {
          "internalType": "bytes32",
          "name": "",
          "type": "bytes32"
        }
      ],
      "stateMutability": "view",
      "type": "function"
    },
    {
      "inputs": [],
      "name": "STATE_SYNCER_ROLE",
      "outputs": [
        {
          "internalType": "bytes32",
          "name": "",
          "type": "bytes32"
        }
      ],
      "stateMutability": "view",
      "type": "function"
    },
    {
      "inputs": [
        {
          "internalType": "bytes32",
          "name": "role",
          "type": "bytes32"
        }
      ],
      "name": "getRoleAdmin",
      "outputs": [
        {
          "internalType": "bytes32",
          "name": "",
          "type": "bytes32"
        }
      ],
      "stateMutability": "view",
      "type": "function"
    },
    {
      "inputs": [
        {
          "internalType": "bytes32",
          "name": "role",
          "type": "bytes32"
        },
        {
          "internalType": "uint256",
          "name": "index",
          "type": "uint256"
        }
      ],
      "name": "getRoleMember",
      "outputs": [
        {
          "internalType": "address",
          "name": "",
          "type": "address"
        }
      ],
      "stateMutability": "view",
      "type": "function"
    },
    {
      "inputs": [
        {
          "internalType": "bytes32",
          "name": "role",
          "type": "bytes32"
        }
      ],
      "name": "getRoleMemberCount",
      "outputs": [
        {
          "internalType": "uint256",
          "name": "",
          "type": "uint256"
        }
      ],
      "stateMutability": "view",
      "type": "function"
    },
    {
      "inputs": [
        {
          "internalType": "bytes32",
          "name": "role",
          "type": "bytes32"
        },
        {
          "internalType": "address",
          "name": "account",
          "type": "address"
        }
      ],
      "name": "grantRole",
      "outputs": [],
      "stateMutability": "nonpayable",
      "type": "function"
    },
    {
      "inputs": [
        {
          "internalType": "bytes32",
          "name": "role",
          "type": "bytes32"
        },
        {
          "internalType": "address",
          "name": "account",
          "type": "address"
        }
      ],
      "name": "hasRole",
      "outputs": [
        {
          "internalType": "bool",
          "name": "",
          "type": "bool"
        }
      ],
      "stateMutability": "view",
      "type": "function"
    },
    {
      "inputs": [
        {
          "internalType": "uint256",
          "name": "",
          "type": "uint256"
        },
        {
          "internalType": "bytes",
          "name": "message",
          "type": "bytes"
        }
      ],
      "name": "onStateReceive",
      "outputs": [],
      "stateMutability": "nonpayable",
      "type": "function"
    },
    {
      "inputs": [
        {
          "internalType": "bytes32",
          "name": "role",
          "type": "bytes32"
        },
        {
          "internalType": "address",
          "name": "account",
          "type": "address"
        }
      ],
      "name": "renounceRole",
      "outputs": [],
      "stateMutability": "nonpayable",
      "type": "function"
    },
    {
      "inputs": [
        {
          "internalType": "bytes32",
          "name": "role",
          "type": "bytes32"
        },
        {
          "internalType": "address",
          "name": "account",
          "type": "address"
        }
      ],
      "name": "revokeRole",
      "outputs": [],
      "stateMutability": "nonpayable",
      "type": "function"
    }
  ],
  "transactionHash": "0x98a895bfdb5a4446a6a93c3a912ca69f0dd8c0808c7e26e98eca3758029465e6",
  "args": [],
  "solcInputHash": "dfdddec729f84d9106ae6618b868e154",
  "bytecode": "0x60806040526200001a6000336001600160e01b036200008316565b620000476040516200002c90620002f8565b6040519081900390206110016001600160e01b036200008316565b60408051808201909152600b81526a10da1a5b19151d5b9b995b60aa1b60208201526200007d906001600160e01b036200009c16565b62000315565b6200009882826001600160e01b03620000d516565b5050565b80604051602001620000af919062000297565b6040516020818303038152906040526001908051906020019062000098929190620001f5565b600082815260208181526040909120620000fa918390620004fa62000157821b17901c565b156200009857620001136001600160e01b036200018016565b6001600160a01b0316816001600160a01b0316837f2f8788117e7eff1d82e926ec794901d17c78024a50270940304540a733656f0d60405160405180910390a45050565b600062000177836001600160a01b0384166001600160e01b036200018516565b90505b92915050565b335b90565b60006200019c83836001600160e01b03620001dd16565b620001d4575081546001818101845560008481526020808220909301849055845484825282860190935260409020919091556200017a565b5060006200017a565b60009081526001919091016020526040902054151590565b828054600181600116156101000203166002900490600052602060002090601f016020900481019282601f106200023857805160ff191683800117855562000268565b8280016001018555821562000268579182015b82811115620002685782518255916020019190600101906200024b565b50620002769291506200027a565b5090565b6200018291905b8082111562000276576000815560010162000281565b60008251815b81811015620002b957602081860181015185830152016200029d565b81811115620002c85782828501525b507f3a20494e53554646494349454e545f5045524d495353494f4e53000000000000920191825250601a01919050565b7053544154455f53594e4345525f524f4c4560781b815260110190565b610a4180620003256000396000f3fe608060405234801561001057600080fd5b506004361061009e5760003560e01c80639010d07c116100665780639010d07c1461010f57806391d148541461012f578063a217fddf1461014f578063ca15c87314610157578063d547741f1461016a5761009e565b8063248a9ca3146100a357806326c53bea146100cc5780632f2ff15d146100e157806336568abe146100f45780634dee449814610107575b600080fd5b6100b66100b1366004610695565b61017d565b6040516100c391906107e9565b60405180910390f35b6100df6100da366004610708565b610192565b005b6100df6100ef3660046106ad565b6101ea565b6100df6101023660046106ad565b610232565b6100b6610274565b61012261011d3660046106e7565b61028b565b6040516100c391906107ca565b61014261013d3660046106ad565b6102b2565b6040516100c391906107de565b6100b66102d0565b6100b6610165366004610695565b6102d5565b6100df6101783660046106ad565b6102ec565b60009081526020819052604090206002015490565b60405161019e906107ad565b60405180910390206101b28161013d610326565b6001906101db5760405162461bcd60e51b81526004016101d29190610845565b60405180910390fd5b506101e58261032a565b505050565b6000828152602081905260409020600201546102089061013d610326565b6102245760405162461bcd60e51b81526004016101d290610911565b61022e828261036d565b5050565b61023a610326565b6001600160a01b0316816001600160a01b03161461026a5760405162461bcd60e51b81526004016101d2906109b0565b61022e82826103dc565b604051610280906107ad565b604051809103902081565b60008281526020819052604081206102a9908363ffffffff61044b16565b90505b92915050565b60008281526020819052604081206102a9908363ffffffff61045716565b600081565b60008181526020819052604081206102ac9061046c565b60008281526020819052604090206002015461030a9061013d610326565b61026a5760405162461bcd60e51b81526004016101d290610960565b3390565b61033381610477565b7f7c48ed30e2c7a6de8987c2b17359d24e16098b7bc445e6df51518f18da82f4e18160405161036291906107f2565b60405180910390a150565b600082815260208190526040902061038b908263ffffffff6104fa16565b1561022e57610398610326565b6001600160a01b0316816001600160a01b0316837f2f8788117e7eff1d82e926ec794901d17c78024a50270940304540a733656f0d60405160405180910390a45050565b60008281526020819052604090206103fa908263ffffffff61050f16565b1561022e57610407610326565b6001600160a01b0316816001600160a01b0316837ff6391f5c32d9c69d2a47ea670b442974b53935d1edc7fd64eb21e047a839171b60405160405180910390a45050565b60006102a98383610524565b60006102a9836001600160a01b038416610569565b60006102ac82610581565b805160205b818110156101e5578083015160f81c6001820184015160601c6015830185015160358401860151605585018701600085600081146104c157600181146104d1576104dc565b6000808585888a5af191506104dc565b6000808585895af491505b50806104e757600080fd5b505080605501850194505050505061047c565b60006102a9836001600160a01b038416610585565b60006102a9836001600160a01b0384166105cf565b815460009082106105475760405162461bcd60e51b81526004016101d2906108cf565b82600001828154811061055657fe5b9060005260206000200154905092915050565b60009081526001919091016020526040902054151590565b5490565b60006105918383610569565b6105c7575081546001818101845560008481526020808220909301849055845484825282860190935260409020919091556102ac565b5060006102ac565b6000818152600183016020526040812054801561068b578354600019808301919081019060009087908390811061060257fe5b906000526020600020015490508087600001848154811061061f57fe5b60009182526020808320909101929092558281526001898101909252604090209084019055865487908061064f57fe5b600190038181906000526020600020016000905590558660010160008781526020019081526020016000206000905560019450505050506102ac565b60009150506102ac565b6000602082840312156106a6578081fd5b5035919050565b600080604083850312156106bf578081fd5b8235915060208301356001600160a01b03811681146106dc578182fd5b809150509250929050565b600080604083850312156106f9578182fd5b50508035926020909101359150565b6000806040838503121561071a578182fd5b8235915060208084013567ffffffffffffffff80821115610739578384fd5b81860187601f82011261074a578485fd5b803592508183111561075a578485fd5b604051601f8401601f1916810185018381118282101715610779578687fd5b604052838152818401850189101561078f578586fd5b83858301868301378585858301015280955050505050509250929050565b7053544154455f53594e4345525f524f4c4560781b815260110190565b6001600160a01b0391909116815260200190565b901515815260200190565b90815260200190565b6000602080835283518082850152825b8181101561081e57858101830151858201604001528201610802565b8181111561082f5783604083870101525b50601f01601f1916929092016040019392505050565b6000602080830181845282855460018082166000811461086c576001811461088a576108c2565b60028304607f16855260ff19831660408901526060880193506108c2565b6002830480865261089a8a6109ff565b885b828110156108b85781548b82016040015290840190880161089c565b8a01604001955050505b5091979650505050505050565b60208082526022908201527f456e756d657261626c655365743a20696e646578206f7574206f6620626f756e604082015261647360f01b606082015260800190565b6020808252602f908201527f416363657373436f6e74726f6c3a2073656e646572206d75737420626520616e60408201526e0818591b5a5b881d1bc819dc985b9d608a1b606082015260800190565b60208082526030908201527f416363657373436f6e74726f6c3a2073656e646572206d75737420626520616e60408201526f2061646d696e20746f207265766f6b6560801b606082015260800190565b6020808252602f908201527f416363657373436f6e74726f6c3a2063616e206f6e6c792072656e6f756e636560408201526e103937b632b9903337b91039b2b63360891b606082015260800190565b6000908152602090209056fea26469706673582212202e37a1198c308995facfd3ee003691ad59e7249cf685d00c926fb4a4919698b264736f6c63430006060033",
  "devdoc": {
    "methods": {
      "getRoleAdmin(bytes32)": {
        "details": "Returns the admin role that controls `role`. See {grantRole} and {revokeRole}.     * To change a role's admin, use {_setRoleAdmin}."
      },
      "getRoleMember(bytes32,uint256)": {
        "details": "Returns one of the accounts that have `role`. `index` must be a value between 0 and {getRoleMemberCount}, non-inclusive.     * Role bearers are not sorted in any particular way, and their ordering may change at any point.     * WARNING: When using {getRoleMember} and {getRoleMemberCount}, make sure you perform all queries on the same block. See the following https://forum.openzeppelin.com/t/iterating-over-elements-on-enumerableset-in-openzeppelin-contracts/2296[forum post] for more information."
      },
      "getRoleMemberCount(bytes32)": {
        "details": "Returns the number of accounts that have `role`. Can be used together with {getRoleMember} to enumerate all bearers of a role."
      },
      "grantRole(bytes32,address)": {
        "details": "Grants `role` to `account`.     * If `account` had not been already granted `role`, emits a {RoleGranted} event.     * Requirements:     * - the caller must have ``role``'s admin role."
      },
      "hasRole(bytes32,address)": {
        "details": "Returns `true` if `account` has been granted `role`."
      },
      "onStateReceive(uint256,bytes)": {
        "details": "This method will be called by Matic chain internally. This is executed without transaction using a system call."
      },
      "renounceRole(bytes32,address)": {
        "details": "Revokes `role` from the calling account.     * Roles are often managed via {grantRole} and {revokeRole}: this function's purpose is to provide a mechanism for accounts to lose their privileges if they are compromised (such as when a trusted device is misplaced).     * If the calling account had been granted `role`, emits a {RoleRevoked} event.     * Requirements:     * - the caller must be `account`."
      },
      "revokeRole(bytes32,address)": {
        "details": "Revokes `role` from `account`.     * If `account` had been granted `role`, emits a {RoleRevoked} event.     * Requirements:     * - the caller must have ``role``'s admin role."
      }
    },
    "title": "EVMBridgeChild lives on the child chain and executes messages sent from the parent chain"
  },
  "userdoc": {
    "methods": {
      "onStateReceive(uint256,bytes)": {
        "notice": "Receive state sync from matic contracts"
      }
    }
  },
  "storageLayout": {
    "storage": [
      {
        "astId": 1793,
        "contract": "contracts/EVMBridgeChild.sol:EVMBridgeChild",
        "label": "_roles",
        "offset": 0,
        "slot": "0",
        "type": "t_mapping(t_bytes32,t_struct(RoleData)1789_storage)"
      },
      {
        "astId": 7,
        "contract": "contracts/EVMBridgeChild.sol:EVMBridgeChild",
        "label": "_revertMsg",
        "offset": 0,
        "slot": "1",
        "type": "t_string_storage"
      }
    ],
    "types": {
      "t_array(t_bytes32)dyn_storage": {
        "base": "t_bytes32",
        "encoding": "dynamic_array",
        "label": "bytes32[]",
        "numberOfBytes": "32"
      },
      "t_bytes32": {
        "encoding": "inplace",
        "label": "bytes32",
        "numberOfBytes": "32"
      },
      "t_mapping(t_bytes32,t_struct(RoleData)1789_storage)": {
        "encoding": "mapping",
        "key": "t_bytes32",
        "label": "mapping(bytes32 => struct AccessControl.RoleData)",
        "numberOfBytes": "32",
        "value": "t_struct(RoleData)1789_storage"
      },
      "t_mapping(t_bytes32,t_uint256)": {
        "encoding": "mapping",
        "key": "t_bytes32",
        "label": "mapping(bytes32 => uint256)",
        "numberOfBytes": "32",
        "value": "t_uint256"
      },
      "t_string_storage": {
        "encoding": "bytes",
        "label": "string",
        "numberOfBytes": "32"
      },
      "t_struct(AddressSet)3113_storage": {
        "encoding": "inplace",
        "label": "struct EnumerableSet.AddressSet",
        "members": [
          {
            "astId": 3112,
            "contract": "contracts/EVMBridgeChild.sol:EVMBridgeChild",
            "label": "_inner",
            "offset": 0,
            "slot": "0",
            "type": "t_struct(Set)2848_storage"
          }
        ],
        "numberOfBytes": "64"
      },
      "t_struct(RoleData)1789_storage": {
        "encoding": "inplace",
        "label": "struct AccessControl.RoleData",
        "members": [
          {
            "astId": 1786,
            "contract": "contracts/EVMBridgeChild.sol:EVMBridgeChild",
            "label": "members",
            "offset": 0,
            "slot": "0",
            "type": "t_struct(AddressSet)3113_storage"
          },
          {
            "astId": 1788,
            "contract": "contracts/EVMBridgeChild.sol:EVMBridgeChild",
            "label": "adminRole",
            "offset": 0,
            "slot": "2",
            "type": "t_bytes32"
          }
        ],
        "numberOfBytes": "96"
      },
      "t_struct(Set)2848_storage": {
        "encoding": "inplace",
        "label": "struct EnumerableSet.Set",
        "members": [
          {
            "astId": 2843,
            "contract": "contracts/EVMBridgeChild.sol:EVMBridgeChild",
            "label": "_values",
            "offset": 0,
            "slot": "0",
            "type": "t_array(t_bytes32)dyn_storage"
          },
          {
            "astId": 2847,
            "contract": "contracts/EVMBridgeChild.sol:EVMBridgeChild",
            "label": "_indexes",
            "offset": 0,
            "slot": "1",
            "type": "t_mapping(t_bytes32,t_uint256)"
          }
        ],
        "numberOfBytes": "64"
      },
      "t_uint256": {
        "encoding": "inplace",
        "label": "uint256",
        "numberOfBytes": "32"
      }
    }
  }
}