{
  "address": "0x3F861649a7517af171ff845a5cb7aE6ACeEbd6aA",
  "abi": [
    {
      "inputs": [
        {
          "internalType": "address",
          "name": "_fxChild",
          "type": "address"
        }
      ],
      "stateMutability": "nonpayable",
      "type": "constructor"
    },
    {
      "anonymous": false,
      "inputs": [
        {
          "indexed": false,
          "internalType": "bytes",
          "name": "message",
          "type": "bytes"
        }
      ],
      "name": "MessageSent",
      "type": "event"
    },
    {
      "anonymous": false,
      "inputs": [
        {
          "indexed": true,
          "internalType": "uint256",
          "name": "stateId",
          "type": "uint256"
        },
        {
          "indexed": true,
          "internalType": "address",
          "name": "sender",
          "type": "address"
        },
        {
          "indexed": false,
          "internalType": "bytes",
          "name": "data",
          "type": "bytes"
        },
        {
          "indexed": false,
          "internalType": "bytes",
          "name": "failure",
          "type": "bytes"
        }
      ],
      "name": "MessagesFromRootFailed",
      "type": "event"
    },
    {
      "anonymous": false,
      "inputs": [
        {
          "indexed": true,
          "internalType": "uint256",
          "name": "stateId",
          "type": "uint256"
        },
        {
          "indexed": true,
          "internalType": "address",
          "name": "sender",
          "type": "address"
        },
        {
          "indexed": false,
          "internalType": "bytes",
          "name": "data",
          "type": "bytes"
        }
      ],
      "name": "ReceivedMessagesFromRoot",
      "type": "event"
    },
    {
      "inputs": [],
      "name": "fxChild",
      "outputs": [
        {
          "internalType": "address",
          "name": "",
          "type": "address"
        }
      ],
      "stateMutability": "view",
      "type": "function"
    },
    {
      "inputs": [],
      "name": "fxRootTunnel",
      "outputs": [
        {
          "internalType": "address",
          "name": "",
          "type": "address"
        }
      ],
      "stateMutability": "view",
      "type": "function"
    },
    {
      "inputs": [
        {
          "internalType": "bytes",
          "name": "transactions",
          "type": "bytes"
        }
      ],
      "name": "multiSend",
      "outputs": [],
      "stateMutability": "nonpayable",
      "type": "function"
    },
    {
      "inputs": [
        {
          "internalType": "uint256",
          "name": "stateId",
          "type": "uint256"
        },
        {
          "internalType": "address",
          "name": "rootMessageSender",
          "type": "address"
        },
        {
          "internalType": "bytes",
          "name": "data",
          "type": "bytes"
        }
      ],
      "name": "processMessageFromRoot",
      "outputs": [],
      "stateMutability": "nonpayable",
      "type": "function"
    },
    {
      "inputs": [
        {
          "internalType": "address",
          "name": "_fxRootTunnel",
          "type": "address"
        }
      ],
      "name": "setFxRootTunnel",
      "outputs": [],
      "stateMutability": "nonpayable",
      "type": "function"
    }
  ],
  "transactionHash": "0xc6c7745b50e5ee8c4629cd0cb9108cb6e824e3150e01adb4633b41868aa272d3",
  "args": [
    "0xCf73231F28B7331BBe3124B907840A94851f9f11"
  ],
  "solcInputHash": "8f7067d61a0d7d45b22862b704eb4bd6",
  "bytecode": "0x608060405234801561001057600080fd5b506040516107ec3803806107ec8339818101604052602081101561003357600080fd5b5051600080546001600160a01b039092166001600160a01b0319909216919091179055610787806100656000396000f3fe608060405234801561001057600080fd5b50600436106100575760003560e01c8063450d11f01461005c5780637f1e9cb01461008057806388837094146100885780638d80ff0a146100b05780639a7c4b7114610156575b600080fd5b6100646101db565b604080516001600160a01b039092168252519081900360200190f35b6100646101ea565b6100ae6004803603602081101561009e57600080fd5b50356001600160a01b03166101f9565b005b6100ae600480360360208110156100c657600080fd5b8101906020810181356401000000008111156100e157600080fd5b8201836020820111156100f357600080fd5b8035906020019184600183028401116401000000008311171561011557600080fd5b91908080601f016020809104026020016040519081016040528093929190818152602001838380828437600092019190915250929550610263945050505050565b6100ae6004803603606081101561016c57600080fd5b8135916001600160a01b036020820135169181019060608101604082013564010000000081111561019c57600080fd5b8201836020820111156101ae57600080fd5b803590602001918460018302840111640100000000831117156101d057600080fd5b5090925090506102ad565b6000546001600160a01b031681565b6001546001600160a01b031681565b6001546001600160a01b0316156102415760405162461bcd60e51b815260040180806020018281038252602a815260200180610728602a913960400191505060405180910390fd5b600180546001600160a01b0319166001600160a01b0392909216919091179055565b3330146102a15760405162461bcd60e51b815260040180806020018281038252602b8152602001806106fd602b913960400191505060405180910390fd5b6102aa8161038c565b50565b60015483906001600160a01b038083169116146102fb5760405162461bcd60e51b815260040180806020018281038252602b8152602001806106d2602b913960400191505060405180910390fd5b6000546001600160a01b031633146103445760405162461bcd60e51b81526004018080602001828103825260218152602001806106b16021913960400191505060405180910390fd5b610385858585858080601f01602080910402602001604051908101604052809392919081815260200183838082843760009201919091525061041492505050565b5050505050565b805160205b8181101561040f578083015160f81c6001820184015160601c6015830185015160358401860151605585018701600085600081146103d657600181146103e6576103f1565b6000808585888a5af191506103f1565b6000808585895af491505b50806103fc57600080fd5b5050806055018501945050505050610391565b505050565b6040516346c07f8560e11b81526020600482018181528351602484015283513093638d80ff0a9386939283926044019185019080838360005b8381101561046557818101518382015260200161044d565b50505050905090810190601f1680156104925780820380516001836020036101000a031916815260200191505b5092505050600060405180830381600087803b1580156104b157600080fd5b505af19250505080156104c2575060015b610607573d8080156104f0576040519150601f19603f3d011682016040523d82523d6000602084013e6104f5565b606091505b50826001600160a01b0316847f31d2bf5b4469b3cd425f08483b1a16282ea6dd2ac739bcf73851f4821e99e31f8484604051808060200180602001838103835285818151815260200191508051906020019080838360005b8381101561056557818101518382015260200161054d565b50505050905090810190601f1680156105925780820380516001836020036101000a031916815260200191505b50838103825284518152845160209182019186019080838360005b838110156105c55781810151838201526020016105ad565b50505050905090810190601f1680156105f25780820380516001836020036101000a031916815260200191505b5094505050505060405180910390a35061040f565b816001600160a01b0316837f94c58dcc5fd388fface430009b3a29575b2b5e4b756109eeb1fc41af5a31524d836040518080602001828103825283818151815260200191508051906020019080838360005b83811015610671578181015183820152602001610659565b50505050905090810190601f16801561069e5780820380516001836020036101000a031916815260200191505b509250505060405180910390a350505056fe4678426173654368696c6454756e6e656c3a20494e56414c49445f53454e4445524678426173654368696c6454756e6e656c3a20494e56414c49445f53454e4445525f46524f4d5f524f4f54506f6f6c546f67657468657245564d4272696467654368696c643a3a204e6f7420617574686f72697a65644678426173654368696c6454756e6e656c3a20524f4f545f54554e4e454c5f414c52454144595f534554a2646970667358221220691feb404b40ae857834adf245e2be9e6c17d1257be9d883481cbbd6b778f9f164736f6c63430007030033",
  "devdoc": {
    "kind": "dev",
    "methods": {
      "multiSend(bytes)": {
        "params": {
          "transactions": "Encoded transactions to be called"
        }
      }
    },
    "title": "PoolTogetherEVMBridgeChild lives on the child chain and executes messages sent from the parent chain",
    "version": 1
  },
  "userdoc": {
    "events": {
      "MessagesFromRootFailed(uint256,address,bytes,bytes)": {
        "notice": "Emitted when a messages from root fail"
      },
      "ReceivedMessagesFromRoot(uint256,address,bytes)": {
        "notice": "Emitted when a message is sent from the child chain"
      }
    },
    "kind": "user",
    "methods": {
      "multiSend(bytes)": {
        "notice": "Wrapper around MultiSend library function"
      }
    },
    "version": 1
  },
  "storageLayout": {
    "storage": [
      {
        "astId": 1627,
        "contract": "contracts/PoolTogetherEVMBridgeChild.sol:PoolTogetherEVMBridgeChild",
        "label": "fxChild",
        "offset": 0,
        "slot": "0",
        "type": "t_address"
      },
      {
        "astId": 1629,
        "contract": "contracts/PoolTogetherEVMBridgeChild.sol:PoolTogetherEVMBridgeChild",
        "label": "fxRootTunnel",
        "offset": 0,
        "slot": "1",
        "type": "t_address"
      }
    ],
    "types": {
      "t_address": {
        "encoding": "inplace",
        "label": "address",
        "numberOfBytes": "20"
      }
    }
  }
}