{
  "address": "0xe89f13fD3e5f13f49B6C4c48ae7104A01f2E70cF",
  "abi": [
    {
      "inputs": [
        {
          "internalType": "address",
          "name": "_fxChild",
          "type": "address"
        }
      ],
      "stateMutability": "nonpayable",
      "type": "constructor"
    },
    {
      "anonymous": false,
      "inputs": [
        {
          "indexed": false,
          "internalType": "bytes",
          "name": "message",
          "type": "bytes"
        }
      ],
      "name": "MessageSent",
      "type": "event"
    },
    {
      "anonymous": false,
      "inputs": [
        {
          "indexed": true,
          "internalType": "uint256",
          "name": "stateId",
          "type": "uint256"
        },
        {
          "indexed": true,
          "internalType": "address",
          "name": "sender",
          "type": "address"
        },
        {
          "indexed": false,
          "internalType": "bytes",
          "name": "data",
          "type": "bytes"
        }
      ],
      "name": "ReceivedMessagesFromRoot",
      "type": "event"
    },
    {
      "inputs": [],
      "name": "fxChild",
      "outputs": [
        {
          "internalType": "address",
          "name": "",
          "type": "address"
        }
      ],
      "stateMutability": "view",
      "type": "function"
    },
    {
      "inputs": [],
      "name": "fxRootTunnel",
      "outputs": [
        {
          "internalType": "address",
          "name": "",
          "type": "address"
        }
      ],
      "stateMutability": "view",
      "type": "function"
    },
    {
      "inputs": [
        {
          "internalType": "uint256",
          "name": "stateId",
          "type": "uint256"
        },
        {
          "internalType": "address",
          "name": "rootMessageSender",
          "type": "address"
        },
        {
          "internalType": "bytes",
          "name": "data",
          "type": "bytes"
        }
      ],
      "name": "processMessageFromRoot",
      "outputs": [],
      "stateMutability": "nonpayable",
      "type": "function"
    },
    {
      "inputs": [
        {
          "internalType": "address",
          "name": "_fxRootTunnel",
          "type": "address"
        }
      ],
      "name": "setFxRootTunnel",
      "outputs": [],
      "stateMutability": "nonpayable",
      "type": "function"
    }
  ],
  "transactionHash": "0x6a18dafbcf8bfb5e9850ef157ab8cdaa8bad39fb371f8e79bc6428b044222ff9",
  "args": [
    "0xCf73231F28B7331BBe3124B907840A94851f9f11"
  ],
  "solcInputHash": "59d3e452504cb6735c9ef666e87a337f",
  "bytecode": "0x608060405234801561001057600080fd5b506040516104dc3803806104dc8339818101604052602081101561003357600080fd5b5051600080546001600160a01b039092166001600160a01b0319909216919091179055610477806100656000396000f3fe608060405234801561001057600080fd5b506004361061004c5760003560e01c8063450d11f0146100515780637f1e9cb014610075578063888370941461007d5780639a7c4b71146100a5575b600080fd5b61005961012a565b604080516001600160a01b039092168252519081900360200190f35b610059610139565b6100a36004803603602081101561009357600080fd5b50356001600160a01b0316610148565b005b6100a3600480360360608110156100bb57600080fd5b8135916001600160a01b03602082013516918101906060810160408201356401000000008111156100eb57600080fd5b8201836020820111156100fd57600080fd5b8035906020019184600183028401116401000000008311171561011f57600080fd5b5090925090506101b2565b6000546001600160a01b031681565b6001546001600160a01b031681565b6001546001600160a01b0316156101905760405162461bcd60e51b815260040180806020018281038252602a815260200180610418602a913960400191505060405180910390fd5b600180546001600160a01b0319166001600160a01b0392909216919091179055565b60015483906001600160a01b038083169116146102005760405162461bcd60e51b815260040180806020018281038252602b8152602001806103ed602b913960400191505060405180910390fd5b6000546001600160a01b031633146102495760405162461bcd60e51b81526004018080602001828103825260218152602001806103cc6021913960400191505060405180910390fd5b61028a858585858080601f01602080910402602001604051908101604052809392919081815260200183838082843760009201919091525061029192505050565b5050505050565b61029a81610343565b816001600160a01b0316837f94c58dcc5fd388fface430009b3a29575b2b5e4b756109eeb1fc41af5a31524d836040518080602001828103825283818151815260200191508051906020019080838360005b838110156103045781810151838201526020016102ec565b50505050905090810190601f1680156103315780820380516001836020036101000a031916815260200191505b509250505060405180910390a3505050565b805160205b818110156103c6578083015160f81c6001820184015160601c60158301850151603584018601516055850187016000856000811461038d576001811461039d576103a8565b6000808585888a5af191506103a8565b6000808585895af491505b50806103b357600080fd5b5050806055018501945050505050610348565b50505056fe4678426173654368696c6454756e6e656c3a20494e56414c49445f53454e4445524678426173654368696c6454756e6e656c3a20494e56414c49445f53454e4445525f46524f4d5f524f4f544678426173654368696c6454756e6e656c3a20524f4f545f54554e4e454c5f414c52454144595f534554a26469706673582212207f09279be01a4fafd329dcb69876cef3e9ab830c02b2266646ab937d4a8cf2bf64736f6c63430007030033",
  "devdoc": {
    "kind": "dev",
    "methods": {},
    "title": "PoolTogetherEVMBridgeChild lives on the child chain and executes messages sent from the parent chain",
    "version": 1
  },
  "userdoc": {
    "events": {
      "ReceivedMessagesFromRoot(uint256,address,bytes)": {
        "notice": "Emitted when a message is sent from the child chain"
      }
    },
    "kind": "user",
    "methods": {},
    "version": 1
  },
  "storageLayout": {
    "storage": [
      {
        "astId": 1572,
        "contract": "contracts/PoolTogetherEVMBridgeChild.sol:PoolTogetherEVMBridgeChild",
        "label": "fxChild",
        "offset": 0,
        "slot": "0",
        "type": "t_address"
      },
      {
        "astId": 1574,
        "contract": "contracts/PoolTogetherEVMBridgeChild.sol:PoolTogetherEVMBridgeChild",
        "label": "fxRootTunnel",
        "offset": 0,
        "slot": "1",
        "type": "t_address"
      }
    ],
    "types": {
      "t_address": {
        "encoding": "inplace",
        "label": "address",
        "numberOfBytes": "20"
      }
    }
  }
}