{
  "address": "0x51471C324b5041BF53c7E5cAD7392f78c397E67b",
  "abi": [
    {
      "inputs": [
        {
          "internalType": "address",
          "name": "_owner",
          "type": "address"
        },
        {
          "internalType": "address",
          "name": "_checkpointManager",
          "type": "address"
        },
        {
          "internalType": "address",
          "name": "_fxRoot",
          "type": "address"
        }
      ],
      "stateMutability": "nonpayable",
      "type": "constructor"
    },
    {
      "anonymous": false,
      "inputs": [
        {
          "indexed": true,
          "internalType": "address",
          "name": "previousOwner",
          "type": "address"
        },
        {
          "indexed": true,
          "internalType": "address",
          "name": "newOwner",
          "type": "address"
        }
      ],
      "name": "OwnershipTransferred",
      "type": "event"
    },
    {
      "anonymous": false,
      "inputs": [
        {
          "components": [
            {
              "internalType": "uint8",
              "name": "callType",
              "type": "uint8"
            },
            {
              "internalType": "address",
              "name": "to",
              "type": "address"
            },
            {
              "internalType": "uint256",
              "name": "value",
              "type": "uint256"
            },
            {
              "internalType": "bytes",
              "name": "data",
              "type": "bytes"
            }
          ],
          "indexed": false,
          "internalType": "struct EVMBridgeRoot.Message[]",
          "name": "data",
          "type": "tuple[]"
        }
      ],
      "name": "SentMessagesToChild",
      "type": "event"
    },
    {
      "inputs": [],
      "name": "SEND_MESSAGE_EVENT_SIG",
      "outputs": [
        {
          "internalType": "bytes32",
          "name": "",
          "type": "bytes32"
        }
      ],
      "stateMutability": "view",
      "type": "function"
    },
    {
      "inputs": [],
      "name": "checkpointManager",
      "outputs": [
        {
          "internalType": "contract ICheckpointManager",
          "name": "",
          "type": "address"
        }
      ],
      "stateMutability": "view",
      "type": "function"
    },
    {
      "inputs": [
        {
          "components": [
            {
              "internalType": "uint8",
              "name": "callType",
              "type": "uint8"
            },
            {
              "internalType": "address",
              "name": "to",
              "type": "address"
            },
            {
              "internalType": "uint256",
              "name": "value",
              "type": "uint256"
            },
            {
              "internalType": "bytes",
              "name": "data",
              "type": "bytes"
            }
          ],
          "internalType": "struct EVMBridgeRoot.Message[]",
          "name": "messages",
          "type": "tuple[]"
        }
      ],
      "name": "execute",
      "outputs": [
        {
          "internalType": "bool",
          "name": "",
          "type": "bool"
        }
      ],
      "stateMutability": "nonpayable",
      "type": "function"
    },
    {
      "inputs": [],
      "name": "fxChildTunnel",
      "outputs": [
        {
          "internalType": "address",
          "name": "",
          "type": "address"
        }
      ],
      "stateMutability": "view",
      "type": "function"
    },
    {
      "inputs": [],
      "name": "fxRoot",
      "outputs": [
        {
          "internalType": "contract IFxStateSender",
          "name": "",
          "type": "address"
        }
      ],
      "stateMutability": "view",
      "type": "function"
    },
    {
      "inputs": [],
      "name": "owner",
      "outputs": [
        {
          "internalType": "address",
          "name": "",
          "type": "address"
        }
      ],
      "stateMutability": "view",
      "type": "function"
    },
    {
      "inputs": [
        {
          "internalType": "bytes32",
          "name": "",
          "type": "bytes32"
        }
      ],
      "name": "processedExits",
      "outputs": [
        {
          "internalType": "bool",
          "name": "",
          "type": "bool"
        }
      ],
      "stateMutability": "view",
      "type": "function"
    },
    {
      "inputs": [
        {
          "internalType": "bytes",
          "name": "inputData",
          "type": "bytes"
        }
      ],
      "name": "receiveMessage",
      "outputs": [],
      "stateMutability": "nonpayable",
      "type": "function"
    },
    {
      "inputs": [],
      "name": "renounceOwnership",
      "outputs": [],
      "stateMutability": "nonpayable",
      "type": "function"
    },
    {
      "inputs": [
        {
          "internalType": "address",
          "name": "_fxChildTunnel",
          "type": "address"
        }
      ],
      "name": "setFxChildTunnel",
      "outputs": [],
      "stateMutability": "nonpayable",
      "type": "function"
    },
    {
      "inputs": [
        {
          "internalType": "address",
          "name": "newOwner",
          "type": "address"
        }
      ],
      "name": "transferOwnership",
      "outputs": [],
      "stateMutability": "nonpayable",
      "type": "function"
    }
  ],
  "transactionHash": "0x41e72d48ea9b11bc26080990690e215e74c3ab5ed92686272641e52d6360da4d",
  "args": [
    "0x3F0556bCA55Bdbb78A9316936067a47fd4C4C4f4",
    "0x2890bA17EfE978480615e330ecB65333b880928e",
    "0x3d1d3E34f7fB6D26245E6640E1c50710eFFf15bA"
  ],
  "solcInputHash": "c54c7ecbd6589c4a2bc5cf125be51ee9",
  "bytecode": "0x60806040523480156200001157600080fd5b5060405162002312380380620023128339810160408190526200003491620001ad565b8181600062000042620000bb565b600080546001600160a01b0319166001600160a01b038316908117825560405192935091600080516020620022f2833981519152908290a350600280546001600160a01b039384166001600160a01b03199182161790915560018054929093169116179055620000b283620000bf565b50505062000271565b3390565b620000c9620000bb565b6001600160a01b0316620000dc62000181565b6001600160a01b0316146200010e5760405162461bcd60e51b815260040162000105906200023c565b60405180910390fd5b6001600160a01b038116620001375760405162461bcd60e51b81526004016200010590620001f6565b600080546040516001600160a01b0380851693921691600080516020620022f283398151915291a3600080546001600160a01b0319166001600160a01b0392909216919091179055565b6000546001600160a01b031690565b80516001600160a01b0381168114620001a857600080fd5b919050565b600080600060608486031215620001c2578283fd5b620001cd8462000190565b9250620001dd6020850162000190565b9150620001ed6040850162000190565b90509250925092565b60208082526026908201527f4f776e61626c653a206e6577206f776e657220697320746865207a65726f206160408201526564647265737360d01b606082015260800190565b6020808252818101527f4f776e61626c653a2063616c6c6572206973206e6f7420746865206f776e6572604082015260600190565b61207180620002816000396000f3fe608060405234801561001057600080fd5b50600436106100a95760003560e01c8063aea4e49e11610071578063aea4e49e14610113578063c0857ba014610126578063de9b771f1461012e578063e8454e5414610136578063f2fde38b14610149578063f953cec71461015c576100a9565b80630e387de6146100ae578063607f2d42146100cc578063715018a6146100ec5780638da5cb5b146100f6578063972c49281461010b575b600080fd5b6100b661016f565b6040516100c391906119d0565b60405180910390f35b6100df6100da366004611639565b610193565b6040516100c391906119c5565b6100f46101a8565b005b6100fe61023a565b6040516100c39190611883565b6100fe610249565b6100f46101213660046115a8565b610258565b6100fe6102a3565b6100fe6102b2565b6100df6101443660046115cb565b6102c1565b6100f46101573660046115a8565b610464565b6100f461016a36600461169d565b610524565b7f8c5261668696ce22758910d05bab8f186d6eb247ceac2af2e82c7dc17669b03681565b60046020526000908152604090205460ff1681565b6101b061053e565b6001600160a01b03166101c161023a565b6001600160a01b0316146101f05760405162461bcd60e51b81526004016101e790611c78565b60405180910390fd5b600080546040516001600160a01b03909116907f8be0079c531659141344cd1fd0a4f28419497f9722a3daafe3b4186f6b6457e0908390a3600080546001600160a01b0319169055565b6000546001600160a01b031690565b6003546001600160a01b031681565b6003546001600160a01b0316156102815760405162461bcd60e51b81526004016101e790611a53565b600380546001600160a01b0319166001600160a01b0392909216919091179055565b6002546001600160a01b031681565b6001546001600160a01b031681565b60006102cb61053e565b6001600160a01b03166102dc61023a565b6001600160a01b0316146103025760405162461bcd60e51b81526004016101e790611c78565b606060005b83811015610417578185858381811061031c57fe5b905060200281019061032e9190611f93565b61033c906020810190611787565b86868481811061034857fe5b905060200281019061035a9190611f93565b61036b9060408101906020016115a8565b87878581811061037757fe5b90506020028101906103899190611f93565b6040013588888681811061039957fe5b90506020028101906103ab9190611f93565b6103b9906060810190611f48565b90508989878181106103c757fe5b90506020028101906103d99190611f93565b6103e7906060810190611f48565b6040516020016103fd97969594939291906117d9565b60408051601f198184030181529190529150600101610307565b5061042181610542565b7f5e9bd6be3303d55411c150b9248b9bde978c7918894a5113d49dc5048b21236284846040516104529291906118d9565b60405180910390a15060019392505050565b61046c61053e565b6001600160a01b031661047d61023a565b6001600160a01b0316146104a35760405162461bcd60e51b81526004016101e790611c78565b6001600160a01b0381166104c95760405162461bcd60e51b81526004016101e790611a9d565b600080546040516001600160a01b03808516939216917f8be0079c531659141344cd1fd0a4f28419497f9722a3daafe3b4186f6b6457e091a3600080546001600160a01b0319166001600160a01b0392909216919091179055565b606061052f826105ad565b905061053a816108c1565b5050565b3390565b60015460035460405163b472047760e01b81526001600160a01b039283169263b472047792610578929116908590600401611897565b600060405180830381600087803b15801561059257600080fd5b505af11580156105a6573d6000803e3d6000fd5b5050505050565b6060806105c16105bc846108c4565b61090a565b905060006105e2826002815181106105d557fe5b6020026020010151610a37565b610607610602846008815181106105f557fe5b6020026020010151610af6565b610ba0565b610617846009815181106105d557fe5b6040516020016106299392919061183b565b60408051601f1981840301815291815281516020928301206000818152600490935291205490915060ff16156106715760405162461bcd60e51b81526004016101e790611b26565b6000818152600460205260409020805460ff1916600117905581516060906106ad906105bc906106a890869060069081106105f557fe5b6108c4565b90506106b761157d565b6106d4826003815181106106c757fe5b602002602001015161090a565b6106e4856009815181106105d557fe5b815181106106ee57fe5b6020026020010151905060606107038261090a565b90506107228160008151811061071557fe5b6020026020010151610d12565b6003546001600160a01b0390811691161461074f5760405162461bcd60e51b81526004016101e790611df6565b610797610762866006815181106105f557fe5b610772876008815181106105f557fe5b610782886007815181106105f557fe5b610792896005815181106105d557fe5b610d64565b6107b35760405162461bcd60e51b81526004016101e790611ae3565b6108216107c6866002815181106105d557fe5b6107d6876003815181106105d557fe5b6107e6886004815181106105d557fe5b60001b6107f9896005815181106105d557fe5b60001b61080c8a6000815181106105d557fe5b61081c8b6001815181106105f557fe5b610fab565b506060610834826001815181106106c757fe5b90507f8c5261668696ce22758910d05bab8f186d6eb247ceac2af2e82c7dc17669b03660001b61086a826000815181106105d557fe5b146108875760405162461bcd60e51b81526004016101e790611d41565b6060610899836002815181106105f557fe5b90506060818060200190518101906108b19190611715565b985050505050505050505b919050565b50565b6108cc61157d565b60008251116108ed5760405162461bcd60e51b81526004016101e790611b6a565b506040805180820190915281518152602082810190820152919050565b6060610915826110aa565b6109315760405162461bcd60e51b81526004016101e790611e89565b600061093c836110d6565b90506060816001600160401b038111801561095657600080fd5b5060405190808252806020026020018201604052801561099057816020015b61097d61157d565b8152602001906001900390816109755790505b50905060006109a28560200151611143565b855190915081146109c55760405162461bcd60e51b81526004016101e790611daf565b60006109d486602001516111dc565b60208701510190506000805b85811015610a2b576109f183611143565b9150604051806040016040528083815260200184815250858281518110610a1457fe5b6020908102919091010152918101916001016109e0565b50929695505050505050565b6000610a42826110aa565b15610a5f5760405162461bcd60e51b81526004016101e790611a1e565b815160211015610a815760405162461bcd60e51b81526004016101e790611d78565b6000610a908360200151611143565b83519091508114610ab35760405162461bcd60e51b81526004016101e790611ec0565b6000610ac284602001516111dc565b84516020808701518301805193945091849003929190831015610aec57826020036101000a820491505b5095945050505050565b60606000610b078360200151611143565b83519091508114610b2a5760405162461bcd60e51b81526004016101e790611ba1565b6000610b3984602001516111dc565b84519091508190036060816001600160401b0381118015610b5957600080fd5b506040519080825280601f01601f191660200182016040528015610b84576020820181803683370190505b5090506000816020019050610aec84886020015101828561123f565b60408051602081019091526000815281516060919015610d0c57600080610bc860008661128a565b60f81c90506001811480610bdf57508060ff166003145b15610c6d5760018551600202036001600160401b0381118015610c0157600080fd5b506040519080825280601f01601f191660200182016040528015610c2c576020820181803683370190505b5092506000610c3c60018761128a565b90508084600081518110610c4c57fe5b60200101906001600160f81b031916908160001a9053506001925050610cbd565b60028551600202036001600160401b0381118015610c8a57600080fd5b506040519080825280601f01601f191660200182016040528015610cb5576020820181803683370190505b509250600091505b60ff82165b8351811015610d0857610cdd8360ff1682036002018761128a565b848281518110610ce957fe5b60200101906001600160f81b031916908160001a905350600101610cc2565b5050505b92915050565b6000610d1d826110aa565b15610d3a5760405162461bcd60e51b81526004016101e790611c35565b8151601514610d5b5760405162461bcd60e51b81526004016101e790611f07565b610d0c82610a37565b6000610d6e61157d565b610d77846108c4565b90506060610d848261090a565b905060608085600082610d968b610ba0565b9050805160001415610db2576000975050505050505050610fa3565b60005b8651811015610f9a578151831115610dd857600098505050505050505050610fa3565b610df4878281518110610de757fe5b60200260200101516112e7565b955085805190602001208414610e1557600098505050505050505050610fa3565b610e248782815181106106c757fe5b9450845160111415610ee1578151831415610e80578c80519060200120610e51866010815181106105f557fe5b805190602001201415610e6f57600198505050505050505050610fa3565b600098505050505050505050610fa3565b6000828481518110610e8e57fe5b016020015160f81c90506010811115610eb35760009950505050505050505050610fa3565b610ed2868260ff1681518110610ec557fe5b602002602001015161134d565b94505060019290920191610f92565b845160021415610e6f576000610f07610f00876000815181106105f557fe5b84866113ae565b905082518185011415610f5d578d80519060200120610f2c876001815181106105f557fe5b805190602001201415610f4b5760019950505050505050505050610fa3565b60009950505050505050505050610fa3565b80610f745760009950505050505050505050610fa3565b8084019350610f8986600181518110610ec557fe5b9450610f929050565b600101610db5565b50505050505050505b949350505050565b6002546040516320a9cea560e11b81526000918291829182916001600160a01b03909116906341539d4a90610fe49089906004016119d0565b60a06040518083038186803b158015610ffc57600080fd5b505afa158015611010573d6000803e3d6000fd5b505050506040513d601f19601f820116820180604052508101906110349190611651565b5093505092509250611081828b0384878d8d8d8d60405160200161105b9493929190611868565b6040516020818303038152906040528051906020012061148c909392919063ffffffff16565b61109d5760405162461bcd60e51b81526004016101e790611d0a565b9998505050505050505050565b6020810151805160009190821a9060c08210156110cc576000925050506108bc565b5060019392505050565b6000806000905060006110ec84602001516111dc565b602085015185519181019250015b8082101561113a5761110b82611143565b820191508082111561112f5760405162461bcd60e51b81526004016101e790611be9565b6001909201916110fa565b50909392505050565b80516000908190811a608081101561115e57600191506111d5565b60b881101561117357607e19810191506111d5565b60c08110156111a05760b78103600185019450806020036101000a855104600182018101935050506111d5565b60f88110156111b55760be19810191506111d5565b60f78103600185019450806020036101000a855104600182018101935050505b5092915050565b8051600090811a60808110156111f65760009150506108bc565b60b8811080611211575060c08110801590611211575060f881105b156112205760019150506108bc565b60c08110156112345760b5190190506108bc565b60f5190190506108bc565b8061124957611285565b5b60208110611269578251825260209283019290910190601f190161124a565b8251825160208390036101000a60001901801990921691161782525b505050565b600060028306156112bb5760108260028504815181106112a657fe5b016020015160f81c816112b557fe5b066112dd565b60108260028504815181106112cc57fe5b016020015160f81c816112db57fe5b045b60f81b9392505050565b60608082600001516001600160401b038111801561130457600080fd5b506040519080825280601f01601f19166020018201604052801561132f576020820181803683370190505b50905060008160200190506111d5846020015182866000015161123f565b60008061135d8360200151611143565b835190915081146113805760405162461bcd60e51b81526004016101e790611e3b565b82516021146113a15760405162461bcd60e51b81526004016101e7906119d9565b5050602001516001015190565b60008060606113bc86610ba0565b9050606081516001600160401b03811180156113d757600080fd5b506040519080825280601f01601f191660200182016040528015611402576020820181803683370190505b509050845b8251860181101561145c57600087828151811061142057fe5b602001015160f81c60f81b905080838884038151811061143c57fe5b60200101906001600160f81b031916908160001a90535050600101611407565b5080805190602001208280519060200120141561147c5781519250611481565b600092505b509095945050505050565b6000602082518161149957fe5b06156114b75760405162461bcd60e51b81526004016101e790611cad565b600060208351816114c457fe5b0490508060020a85106114e95760405162461bcd60e51b81526004016101e790611cdb565b60008660205b8551811161156f57858101519250600288066115355781836040516020016115189291906117cb565b604051602081830303815290604052805190602001209150611561565b82826040516020016115489291906117cb565b6040516020818303038152906040528051906020012091505b6002880497506020016114ef565b509094149695505050505050565b604051806040016040528060008152602001600081525090565b803560ff811681146108bc57600080fd5b6000602082840312156115b9578081fd5b81356115c481612026565b9392505050565b600080602083850312156115dd578081fd5b82356001600160401b03808211156115f3578283fd5b818501915085601f830112611606578283fd5b813581811115611614578384fd5b8660208083028501011115611627578384fd5b60209290920196919550909350505050565b60006020828403121561164a578081fd5b5035919050565b600080600080600060a08688031215611668578081fd5b85519450602086015193506040860151925060608601519150608086015161168f81612026565b809150509295509295909350565b6000602082840312156116ae578081fd5b81356001600160401b038111156116c3578182fd5b8201601f810184136116d3578182fd5b80356116e66116e182611fd5565b611fb2565b8181528560208385010111156116fa578384fd5b81602084016020830137908101602001929092525092915050565b600060208284031215611726578081fd5b81516001600160401b0381111561173b578182fd5b8201601f8101841361174b578182fd5b80516117596116e182611fd5565b81815285602083850101111561176d578384fd5b61177e826020830160208601611ff6565b95945050505050565b600060208284031215611798578081fd5b6115c482611597565b60008284528282602086013780602084860101526020601f19601f85011685010190509392505050565b918252602082015260400190565b600088516117eb818460208d01611ff6565b808301905060ff60f81b8960f81b1681526bffffffffffffffffffffffff198860601b16600182015286601582015285603582015283856055830137909201605501918252509695505050505050565b60008482528351611853816020850160208801611ff6565b60209201918201929092526040019392505050565b93845260208401929092526040830152606082015260800190565b6001600160a01b0391909116815260200190565b600060018060a01b03841682526040602083015282518060408401526118c4816060850160208701611ff6565b601f01601f1916919091016060019392505050565b602080825281810183905260009060408084018583028501820187855b888110156119b757878303603f190184528135368b9003607e1901811261191b578788fd5b8a01608060ff61192a83611597565b1685528782013561193a81612026565b6001600160a01b031685890152818701358786015260608083013536849003601e19018112611967578a8bfd5b830180356001600160401b0381111561197e578b8cfd5b80360385131561198c578b8cfd5b83838901526119a0848901828d85016117a1565b988b019897505050938801935050506001016118f6565b509098975050505050505050565b901515815260200190565b90815260200190565b60208082526025908201527f524c505265616465723a20494e56414c49445f55494e545f5354524943545f4c60408201526408a9c8ea8960db1b606082015260800190565b6020808252818101527f524c505265616465723a204445434f44494e475f4c4953545f41535f55494e54604082015260600190565b6020808252602a908201527f467842617365526f6f7454756e6e656c3a204348494c445f54554e4e454c5f4160408201526913149150511657d4d15560b21b606082015260800190565b60208082526026908201527f4f776e61626c653a206e6577206f776e657220697320746865207a65726f206160408201526564647265737360d01b606082015260800190565b60208082526023908201527f4678526f6f7454756e6e656c3a20494e56414c49445f524543454950545f505260408201526227a7a360e91b606082015260800190565b60208082526024908201527f4678526f6f7454756e6e656c3a20455849545f414c52454144595f50524f434560408201526314d4d15160e21b606082015260800190565b6020808252601f908201527f524c505265616465723a20494e56414c49445f42595445535f4c454e47544800604082015260600190565b60208082526028908201527f524c505265616465723a2042595445535f4445434f4445445f4c454e4754485f60408201526709a92a69a82a886960c31b606082015260800190565b6020808252602c908201527f524c505265616465723a204e554d5f4954454d535f4445434f4445445f4c454e60408201526b08ea890be9a92a69a82a886960a31b606082015260800190565b60208082526023908201527f524c505265616465723a204445434f44494e475f4c4953545f41535f4144445260408201526245535360e81b606082015260800190565b6020808252818101527f4f776e61626c653a2063616c6c6572206973206e6f7420746865206f776e6572604082015260600190565b602080825260149082015273092dcecc2d8d2c840e0e4dedecc40d8cadccee8d60631b604082015260600190565b6020808252601590820152744c65616620696e64657820697320746f6f2062696760581b604082015260600190565b6020808252601c908201527f4678526f6f7454756e6e656c3a20494e56414c49445f48454144455200000000604082015260600190565b6020808252601f908201527f4678526f6f7454756e6e656c3a20494e56414c49445f5349474e415455524500604082015260600190565b6020808252601e908201527f524c505265616465723a20494e56414c49445f55494e545f4c454e4754480000604082015260600190565b60208082526027908201527f524c505265616465723a204c4953545f4445434f4445445f4c454e4754485f4d604082015266092a69a82a886960cb1b606082015260800190565b60208082526025908201527f4678526f6f7454756e6e656c3a20494e56414c49445f46585f4348494c445f54604082015264155393915360da1b606082015260800190565b6020808252602e908201527f524c505265616465723a2055494e545f5354524943545f4445434f4445445f4c60408201526d08a9c8ea890be9a92a69a82a886960931b606082015260800190565b60208082526018908201527f524c505265616465723a204954454d5f4e4f545f4c4953540000000000000000604082015260600190565b60208082526027908201527f524c505265616465723a2055494e545f4445434f4445445f4c454e4754485f4d604082015266092a69a82a886960cb1b606082015260800190565b60208082526021908201527f524c505265616465723a20494e56414c49445f414444524553535f4c454e47546040820152600960fb1b606082015260800190565b6000808335601e19843603018112611f5e578283fd5b8301803591506001600160401b03821115611f77578283fd5b602001915036819003821315611f8c57600080fd5b9250929050565b60008235607e19833603018112611fa8578182fd5b9190910192915050565b6040518181016001600160401b0381118282101715611fcd57fe5b604052919050565b60006001600160401b03821115611fe857fe5b50601f01601f191660200190565b60005b83811015612011578181015183820152602001611ff9565b83811115612020576000848401525b50505050565b6001600160a01b03811681146108c157600080fdfea2646970667358221220d21fa5634e4188bf40b9f8cb0e0b997df133cc47c2875adbfdada2425a550efb64736f6c634300070300338be0079c531659141344cd1fd0a4f28419497f9722a3daafe3b4186f6b6457e0",
  "devdoc": {
    "kind": "dev",
    "methods": {
      "constructor": {
        "params": {
          "_checkpointManager": "Address of the checkpoint manager",
          "_fxRoot": "Address of the fxRoot for the chain",
          "_owner": "Owner of this contract"
        }
      },
      "execute((uint8,address,uint256,bytes)[])": {
        "params": {
          "messages": "Array of Message's that will be encoded and sent to the child chain"
        }
      },
      "owner()": {
        "details": "Returns the address of the current owner."
      },
      "receiveMessage(bytes)": {
        "details": "This function verifies if the transaction actually happened on child chain",
        "params": {
          "inputData": "RLP encoded data of the reference tx containing following list of fields  0 - headerNumber - Checkpoint header block number containing the reference tx  1 - blockProof - Proof that the block header (in the child chain) is a leaf in the submitted merkle root  2 - blockNumber - Block number containing the reference tx on child chain  3 - blockTime - Reference tx block time  4 - txRoot - Transactions root of block  5 - receiptRoot - Receipts root of block  6 - receipt - Receipt of the reference transaction  7 - receiptProof - Merkle proof of the reference receipt  8 - branchMask - 32 bits denoting the path of receipt in merkle tree  9 - receiptLogIndex - Log Index to read from the receipt"
        }
      },
      "renounceOwnership()": {
        "details": "Leaves the contract without owner. It will not be possible to call `onlyOwner` functions anymore. Can only be called by the current owner. NOTE: Renouncing ownership will leave the contract without an owner, thereby removing any functionality that is only available to the owner."
      },
      "transferOwnership(address)": {
        "details": "Transfers ownership of the contract to a new account (`newOwner`). Can only be called by the current owner."
      }
    },
    "title": "EVMBridgeRoot lives on the parent chain (e.g. eth mainnet) and sends messages to a child chain",
    "version": 1
  },
  "userdoc": {
    "events": {
      "SentMessagesToChild((uint8,address,uint256,bytes)[])": {
        "notice": "Emitted when a message is sent to the child chain"
      }
    },
    "kind": "user",
    "methods": {
      "constructor": {
        "notice": "Contract constructor"
      },
      "execute((uint8,address,uint256,bytes)[])": {
        "notice": "Structure of a message to be sent to the child chain"
      },
      "receiveMessage(bytes)": {
        "notice": "receive message from  L2 to L1, validated by proof"
      }
    },
    "version": 1
  },
  "storageLayout": {
    "storage": [
      {
        "astId": 290,
        "contract": "contracts/EVMBridgeRoot.sol:EVMBridgeRoot",
        "label": "_owner",
        "offset": 0,
        "slot": "0",
        "type": "t_address"
      },
      {
        "astId": 1895,
        "contract": "contracts/EVMBridgeRoot.sol:EVMBridgeRoot",
        "label": "fxRoot",
        "offset": 0,
        "slot": "1",
        "type": "t_contract(IFxStateSender)1864"
      },
      {
        "astId": 1897,
        "contract": "contracts/EVMBridgeRoot.sol:EVMBridgeRoot",
        "label": "checkpointManager",
        "offset": 0,
        "slot": "2",
        "type": "t_contract(ICheckpointManager)1881"
      },
      {
        "astId": 1899,
        "contract": "contracts/EVMBridgeRoot.sol:EVMBridgeRoot",
        "label": "fxChildTunnel",
        "offset": 0,
        "slot": "3",
        "type": "t_address"
      },
      {
        "astId": 1903,
        "contract": "contracts/EVMBridgeRoot.sol:EVMBridgeRoot",
        "label": "processedExits",
        "offset": 0,
        "slot": "4",
        "type": "t_mapping(t_bytes32,t_bool)"
      }
    ],
    "types": {
      "t_address": {
        "encoding": "inplace",
        "label": "address",
        "numberOfBytes": "20"
      },
      "t_bool": {
        "encoding": "inplace",
        "label": "bool",
        "numberOfBytes": "1"
      },
      "t_bytes32": {
        "encoding": "inplace",
        "label": "bytes32",
        "numberOfBytes": "32"
      },
      "t_contract(ICheckpointManager)1881": {
        "encoding": "inplace",
        "label": "contract ICheckpointManager",
        "numberOfBytes": "20"
      },
      "t_contract(IFxStateSender)1864": {
        "encoding": "inplace",
        "label": "contract IFxStateSender",
        "numberOfBytes": "20"
      },
      "t_mapping(t_bytes32,t_bool)": {
        "encoding": "mapping",
        "key": "t_bytes32",
        "label": "mapping(bytes32 => bool)",
        "numberOfBytes": "32",
        "value": "t_bool"
      }
    }
  }
}