{
  "address": "0x14e09c3319244a84e7c1e7b52634f5220fa96623",
  "abi": [
    {
      "inputs": [
        {
          "internalType": "address",
          "name": "_owner",
          "type": "address"
        },
        {
          "internalType": "address",
          "name": "_childTunnel",
          "type": "address"
        },
        {
          "internalType": "contract ICheckpointManager",
          "name": "_checkpointManager",
          "type": "address"
        }
      ],
      "stateMutability": "nonpayable",
      "type": "constructor"
    },
    {
      "anonymous": false,
      "inputs": [
        {
          "indexed": true,
          "internalType": "address",
          "name": "previousOwner",
          "type": "address"
        },
        {
          "indexed": true,
          "internalType": "address",
          "name": "newOwner",
          "type": "address"
        }
      ],
      "name": "OwnershipTransferred",
      "type": "event"
    },
    {
      "anonymous": false,
      "inputs": [
        {
          "indexed": true,
          "internalType": "bytes32",
          "name": "role",
          "type": "bytes32"
        },
        {
          "indexed": true,
          "internalType": "bytes32",
          "name": "previousAdminRole",
          "type": "bytes32"
        },
        {
          "indexed": true,
          "internalType": "bytes32",
          "name": "newAdminRole",
          "type": "bytes32"
        }
      ],
      "name": "RoleAdminChanged",
      "type": "event"
    },
    {
      "anonymous": false,
      "inputs": [
        {
          "indexed": true,
          "internalType": "bytes32",
          "name": "role",
          "type": "bytes32"
        },
        {
          "indexed": true,
          "internalType": "address",
          "name": "account",
          "type": "address"
        },
        {
          "indexed": true,
          "internalType": "address",
          "name": "sender",
          "type": "address"
        }
      ],
      "name": "RoleGranted",
      "type": "event"
    },
    {
      "anonymous": false,
      "inputs": [
        {
          "indexed": true,
          "internalType": "bytes32",
          "name": "role",
          "type": "bytes32"
        },
        {
          "indexed": true,
          "internalType": "address",
          "name": "account",
          "type": "address"
        },
        {
          "indexed": true,
          "internalType": "address",
          "name": "sender",
          "type": "address"
        }
      ],
      "name": "RoleRevoked",
      "type": "event"
    },
    {
      "anonymous": false,
      "inputs": [
        {
          "components": [
            {
              "internalType": "uint8",
              "name": "callType",
              "type": "uint8"
            },
            {
              "internalType": "address",
              "name": "to",
              "type": "address"
            },
            {
              "internalType": "uint256",
              "name": "value",
              "type": "uint256"
            },
            {
              "internalType": "bytes",
              "name": "data",
              "type": "bytes"
            }
          ],
          "indexed": false,
          "internalType": "struct EVMBridgeRoot.Message[]",
          "name": "data",
          "type": "tuple[]"
        }
      ],
      "name": "SentMessagesToChild",
      "type": "event"
    },
    {
      "inputs": [],
      "name": "DEFAULT_ADMIN_ROLE",
      "outputs": [
        {
          "internalType": "bytes32",
          "name": "",
          "type": "bytes32"
        }
      ],
      "stateMutability": "view",
      "type": "function"
    },
    {
      "inputs": [],
      "name": "SEND_MESSAGE_EVENT_SIG",
      "outputs": [
        {
          "internalType": "bytes32",
          "name": "",
          "type": "bytes32"
        }
      ],
      "stateMutability": "view",
      "type": "function"
    },
    {
      "inputs": [],
      "name": "checkpointManager",
      "outputs": [
        {
          "internalType": "contract ICheckpointManager",
          "name": "",
          "type": "address"
        }
      ],
      "stateMutability": "view",
      "type": "function"
    },
    {
      "inputs": [],
      "name": "childTunnel",
      "outputs": [
        {
          "internalType": "address",
          "name": "",
          "type": "address"
        }
      ],
      "stateMutability": "view",
      "type": "function"
    },
    {
      "inputs": [
        {
          "components": [
            {
              "internalType": "uint8",
              "name": "callType",
              "type": "uint8"
            },
            {
              "internalType": "address",
              "name": "to",
              "type": "address"
            },
            {
              "internalType": "uint256",
              "name": "value",
              "type": "uint256"
            },
            {
              "internalType": "bytes",
              "name": "data",
              "type": "bytes"
            }
          ],
          "internalType": "struct EVMBridgeRoot.Message[]",
          "name": "messages",
          "type": "tuple[]"
        }
      ],
      "name": "execute",
      "outputs": [
        {
          "internalType": "bool",
          "name": "",
          "type": "bool"
        }
      ],
      "stateMutability": "nonpayable",
      "type": "function"
    },
    {
      "inputs": [
        {
          "internalType": "bytes32",
          "name": "role",
          "type": "bytes32"
        }
      ],
      "name": "getRoleAdmin",
      "outputs": [
        {
          "internalType": "bytes32",
          "name": "",
          "type": "bytes32"
        }
      ],
      "stateMutability": "view",
      "type": "function"
    },
    {
      "inputs": [
        {
          "internalType": "bytes32",
          "name": "role",
          "type": "bytes32"
        },
        {
          "internalType": "uint256",
          "name": "index",
          "type": "uint256"
        }
      ],
      "name": "getRoleMember",
      "outputs": [
        {
          "internalType": "address",
          "name": "",
          "type": "address"
        }
      ],
      "stateMutability": "view",
      "type": "function"
    },
    {
      "inputs": [
        {
          "internalType": "bytes32",
          "name": "role",
          "type": "bytes32"
        }
      ],
      "name": "getRoleMemberCount",
      "outputs": [
        {
          "internalType": "uint256",
          "name": "",
          "type": "uint256"
        }
      ],
      "stateMutability": "view",
      "type": "function"
    },
    {
      "inputs": [
        {
          "internalType": "bytes32",
          "name": "role",
          "type": "bytes32"
        },
        {
          "internalType": "address",
          "name": "account",
          "type": "address"
        }
      ],
      "name": "grantRole",
      "outputs": [],
      "stateMutability": "nonpayable",
      "type": "function"
    },
    {
      "inputs": [
        {
          "internalType": "bytes32",
          "name": "role",
          "type": "bytes32"
        },
        {
          "internalType": "address",
          "name": "account",
          "type": "address"
        }
      ],
      "name": "hasRole",
      "outputs": [
        {
          "internalType": "bool",
          "name": "",
          "type": "bool"
        }
      ],
      "stateMutability": "view",
      "type": "function"
    },
    {
      "inputs": [],
      "name": "owner",
      "outputs": [
        {
          "internalType": "address",
          "name": "",
          "type": "address"
        }
      ],
      "stateMutability": "view",
      "type": "function"
    },
    {
      "inputs": [
        {
          "internalType": "bytes32",
          "name": "",
          "type": "bytes32"
        }
      ],
      "name": "processedExits",
      "outputs": [
        {
          "internalType": "bool",
          "name": "",
          "type": "bool"
        }
      ],
      "stateMutability": "view",
      "type": "function"
    },
    {
      "inputs": [
        {
          "internalType": "bytes",
          "name": "inputData",
          "type": "bytes"
        }
      ],
      "name": "receiveMessage",
      "outputs": [],
      "stateMutability": "nonpayable",
      "type": "function"
    },
    {
      "inputs": [],
      "name": "renounceOwnership",
      "outputs": [],
      "stateMutability": "nonpayable",
      "type": "function"
    },
    {
      "inputs": [
        {
          "internalType": "bytes32",
          "name": "role",
          "type": "bytes32"
        },
        {
          "internalType": "address",
          "name": "account",
          "type": "address"
        }
      ],
      "name": "renounceRole",
      "outputs": [],
      "stateMutability": "nonpayable",
      "type": "function"
    },
    {
      "inputs": [
        {
          "internalType": "bytes32",
          "name": "role",
          "type": "bytes32"
        },
        {
          "internalType": "address",
          "name": "account",
          "type": "address"
        }
      ],
      "name": "revokeRole",
      "outputs": [],
      "stateMutability": "nonpayable",
      "type": "function"
    },
    {
      "inputs": [
        {
          "internalType": "address",
          "name": "newCheckpointManager",
          "type": "address"
        }
      ],
      "name": "setCheckpointManager",
      "outputs": [],
      "stateMutability": "nonpayable",
      "type": "function"
    },
    {
      "inputs": [
        {
          "internalType": "address",
          "name": "newChildTunnel",
          "type": "address"
        }
      ],
      "name": "setChildTunnel",
      "outputs": [],
      "stateMutability": "nonpayable",
      "type": "function"
    },
    {
      "inputs": [
        {
          "internalType": "address",
          "name": "newStateSender",
          "type": "address"
        }
      ],
      "name": "setStateSender",
      "outputs": [],
      "stateMutability": "nonpayable",
      "type": "function"
    },
    {
      "inputs": [],
      "name": "stateSender",
      "outputs": [
        {
          "internalType": "contract IStateSender",
          "name": "",
          "type": "address"
        }
      ],
      "stateMutability": "view",
      "type": "function"
    },
    {
      "inputs": [
        {
          "internalType": "address",
          "name": "newOwner",
          "type": "address"
        }
      ],
      "name": "transferOwnership",
      "outputs": [],
      "stateMutability": "nonpayable",
      "type": "function"
    }
  ],
  "transactionHash": "0x8cab16044b1a07a06d5aa9f275bb70dc937204a6c2383cab14e2bdc3c153369b",
  "args": [
    "0x3F0556bCA55Bdbb78A9316936067a47fd4C4C4f4",
    "0x2BDb05351971f27bB2eBe599289D74f2EC93a00A",
    "0x2890bA17EfE978480615e330ecB65333b880928e"
  ],
  "solcInputHash": "3a2d4677dcccddf473fbb84e19f1242f",
  "bytecode": "0x60806040523480156200001157600080fd5b5060405162002f7738038062002f77833981016040819052620000349162000465565b6000620000496001600160e01b036200017516565b600080546001600160a01b0319166001600160a01b03831690811782556040519293509160008051602062002f57833981519152908290a350620000986000336001600160e01b036200017a16565b60408051808201909152600a815269149bdbdd151d5b9b995b60b21b6020820152620000cd906001600160e01b036200019316565b6001600160a01b038216620000ff5760405162461bcd60e51b8152600401620000f690620005bc565b60405180910390fd5b6001600160a01b038116620001285760405162461bcd60e51b8152600401620000f6906200055f565b600480546001600160a01b038084166001600160a01b03199283161790925560058054928516929091169190911790556200016c836001600160e01b03620001cc16565b5050506200065b565b335b90565b6200018f82826001600160e01b036200029716565b5050565b80604051602001620001a69190620004b8565b604051602081830303815290604052600290805190602001906200018f929190620003c3565b620001df6001600160e01b036200017516565b6001600160a01b0316620001fb6001600160e01b036200031b16565b6001600160a01b031614620002245760405162461bcd60e51b8152600401620000f6906200060d565b6001600160a01b0381166200024d5760405162461bcd60e51b8152600401620000f69062000519565b600080546040516001600160a01b038085169392169160008051602062002f5783398151915291a3600080546001600160a01b0319166001600160a01b0392909216919091179055565b6000828152600160209081526040909120620002be91839062000d186200032a821b17901c565b156200018f57620002d76001600160e01b036200017516565b6001600160a01b0316816001600160a01b0316837f2f8788117e7eff1d82e926ec794901d17c78024a50270940304540a733656f0d60405160405180910390a45050565b6000546001600160a01b031690565b60006200034a836001600160a01b0384166001600160e01b036200035316565b90505b92915050565b60006200036a83836001600160e01b03620003ab16565b620003a2575081546001818101845560008481526020808220909301849055845484825282860190935260409020919091556200034d565b5060006200034d565b60009081526001919091016020526040902054151590565b828054600181600116156101000203166002900490600052602060002090601f016020900481019282601f106200040657805160ff191683800117855562000436565b8280016001018555821562000436579182015b828111156200043657825182559160200191906001019062000419565b506200044492915062000448565b5090565b6200017791905b808211156200044457600081556001016200044f565b6000806000606084860312156200047a578283fd5b8351620004878162000642565b60208501519093506200049a8162000642565b6040850151909250620004ad8162000642565b809150509250925092565b60008251815b81811015620004da5760208186018101518583015201620004be565b81811115620004e95782828501525b507f3a20494e53554646494349454e545f5045524d495353494f4e53000000000000920191825250601a01919050565b60208082526026908201527f4f776e61626c653a206e6577206f776e657220697320746865207a65726f206160408201526564647265737360d01b606082015260800190565b60208082526037908201527f45564d427269646765526f6f743a3a636865636b706f696e744d616e6167657260408201527f2063616e6e6f74206265207a65726f2061646472657373000000000000000000606082015260800190565b60208082526031908201527f45564d427269646765526f6f743a3a6368696c6454756e6e656c2063616e6e6f60408201527074206265207a65726f206164647265737360781b606082015260800190565b6020808252818101527f4f776e61626c653a2063616c6c6572206973206e6f7420746865206f776e6572604082015260600190565b6001600160a01b03811681146200065857600080fd5b50565b6128ec806200066b6000396000f3fe608060405234801561001057600080fd5b50600436106101375760003560e01c806391d14854116100b8578063ca15c8731161007c578063ca15c87314610249578063cb10f94c1461025c578063d547741f14610264578063e8454e5414610277578063f2fde38b1461028a578063f953cec71461029d57610137565b806391d1485414610200578063a217fddf14610213578063bc08452b1461021b578063c0857ba01461022e578063ca02b2671461023657610137565b80636cb136b0116100ff5780636cb136b0146101b55780636d6aa34d146101c8578063715018a6146101dd5780638da5cb5b146101e55780639010d07c146101ed57610137565b80630e387de61461013c578063248a9ca31461015a5780632f2ff15d1461016d57806336568abe14610182578063607f2d4214610195575b600080fd5b6101446102b0565b604051610151919061204e565b60405180910390f35b610144610168366004611c55565b6102d4565b61018061017b366004611c6d565b6102ec565b005b610180610190366004611c6d565b61033d565b6101a86101a3366004611c55565b61037f565b6040516101519190612043565b6101806101c3366004611bc7565b610394565b6101d06103e6565b6040516101519190611efb565b6101806103f5565b6101d061047e565b6101d06101fb366004611c9c565b61048d565b6101a861020e366004611c6d565b6104b4565b6101446104d2565b610180610229366004611bc7565b6104d7565b6101d0610529565b610180610244366004611bc7565b610538565b610144610257366004611c55565b6105b0565b6101d06105c7565b610180610272366004611c6d565b6105d6565b6101a8610285366004611bea565b610610565b610180610298366004611bc7565b6107b3565b6101806102ab366004611d09565b610873565b7f8c5261668696ce22758910d05bab8f186d6eb247ceac2af2e82c7dc17669b03681565b6000818152600160205260409020600201545b919050565b60008281526001602052604090206002015461030a9061020e610889565b61032f5760405162461bcd60e51b815260040161032690612168565b60405180910390fd5b610339828261088d565b5050565b610345610889565b6001600160a01b0316816001600160a01b0316146103755760405162461bcd60e51b815260040161032690612682565b61033982826108fc565b60066020526000908152604090205460ff1681565b60006103a28161020e610889565b6002906103c25760405162461bcd60e51b81526004016103269190612057565b5050600380546001600160a01b0319166001600160a01b0392909216919091179055565b6005546001600160a01b031681565b6103fd610889565b6001600160a01b031661040e61047e565b6001600160a01b0316146104345760405162461bcd60e51b815260040161032690612409565b600080546040516001600160a01b03909116907f8be0079c531659141344cd1fd0a4f28419497f9722a3daafe3b4186f6b6457e0908390a3600080546001600160a01b0319169055565b6000546001600160a01b031690565b60008281526001602052604081206104ab908363ffffffff61096b16565b90505b92915050565b60008281526001602052604081206104ab908363ffffffff61097716565b600081565b60006104e58161020e610889565b6002906105055760405162461bcd60e51b81526004016103269190612057565b5050600480546001600160a01b0319166001600160a01b0392909216919091179055565b6004546001600160a01b031681565b60006105468161020e610889565b6002906105665760405162461bcd60e51b81526004016103269190612057565b506001600160a01b03821661058d5760405162461bcd60e51b815260040161032690612759565b50600580546001600160a01b0319166001600160a01b0392909216919091179055565b60008181526001602052604081206104ae9061098c565b6003546001600160a01b031681565b6000828152600160205260409020600201546105f49061020e610889565b6103755760405162461bcd60e51b8152600401610326906122e8565b600061061a610889565b6001600160a01b031661062b61047e565b6001600160a01b0316146106515760405162461bcd60e51b815260040161032690612409565b606060005b83811015610766578185858381811061066b57fe5b905060200281019061067d91906127ee565b61068b906020810190611df9565b86868481811061069757fe5b90506020028101906106a991906127ee565b6106ba906040810190602001611bc7565b8787858181106106c657fe5b90506020028101906106d891906127ee565b604001358888868181106106e857fe5b90506020028101906106fa91906127ee565b6107089060608101906127a1565b905089898781811061071657fe5b905060200281019061072891906127ee565b6107369060608101906127a1565b60405160200161074c9796959493929190611e52565b60408051601f198184030181529190529150600101610656565b5061077081610997565b7f5e9bd6be3303d55411c150b9248b9bde978c7918894a5113d49dc5048b21236284846040516107a1929190611f51565b60405180910390a15060019392505050565b6107bb610889565b6001600160a01b03166107cc61047e565b6001600160a01b0316146107f25760405162461bcd60e51b815260040161032690612409565b6001600160a01b0381166108185760405162461bcd60e51b8152600401610326906121ec565b600080546040516001600160a01b03808516939216917f8be0079c531659141344cd1fd0a4f28419497f9722a3daafe3b4186f6b6457e091a3600080546001600160a01b0319166001600160a01b0392909216919091179055565b606061087e82610a02565b905061033981610d15565b3390565b60008281526001602052604090206108ab908263ffffffff610d1816565b15610339576108b8610889565b6001600160a01b0316816001600160a01b0316837f2f8788117e7eff1d82e926ec794901d17c78024a50270940304540a733656f0d60405160405180910390a45050565b600082815260016020526040902061091a908263ffffffff610d2d16565b1561033957610927610889565b6001600160a01b0316816001600160a01b0316837ff6391f5c32d9c69d2a47ea670b442974b53935d1edc7fd64eb21e047a839171b60405160405180910390a45050565b60006104ab8383610d42565b60006104ab836001600160a01b038416610d87565b60006104ae82610d9f565b6003546005546040516316f1983160e01b81526001600160a01b03928316926316f19831926109cd929116908590600401611f0f565b600060405180830381600087803b1580156109e757600080fd5b505af11580156109fb573d6000803e3d6000fd5b5050505050565b606080610a16610a1184610da3565b610de9565b90506000610a3782600281518110610a2a57fe5b6020026020010151610f16565b610a5c610a5784600881518110610a4a57fe5b6020026020010151610fd5565b61107f565b610a6c84600981518110610a2a57fe5b604051602001610a7e93929190611eb3565b60408051601f1981840301815291815281516020928301206000818152600690935291205490915060ff1615610ac65760405162461bcd60e51b8152600401610326906123c7565b6000818152600660208190526040909120805460ff191660011790558251606091610b0391610a1191610afe918791908110610a4a57fe5b610da3565b9050610b0d611ba2565b610b2a82600381518110610b1d57fe5b6020026020010151610de9565b610b3a85600981518110610a2a57fe5b81518110610b4457fe5b602002602001015190506060610b5982610de9565b9050610b7881600081518110610b6b57fe5b60200260200101516111f0565b6005546001600160a01b03908116911614610ba55760405162461bcd60e51b815260040161032690612581565b610bed610bb886600681518110610a4a57fe5b610bc887600881518110610a4a57fe5b610bd888600781518110610a4a57fe5b610be889600581518110610a2a57fe5b611242565b610c095760405162461bcd60e51b815260040161032690612509565b610c77610c1c86600281518110610a2a57fe5b610c2c87600381518110610a2a57fe5b610c3c88600481518110610a2a57fe5b60001b610c4f89600581518110610a2a57fe5b60001b610c628a600081518110610a2a57fe5b610c728b600181518110610a4a57fe5b611489565b506060610c8a82600181518110610b1d57fe5b90507f8c5261668696ce22758910d05bab8f186d6eb247ceac2af2e82c7dc17669b03660001b610cc082600081518110610a2a57fe5b14610cdd5760405162461bcd60e51b81526004016103269061249b565b6060610cef83600281518110610a4a57fe5b9050606081806020019051810190610d079190611d84565b9a9950505050505050505050565b50565b60006104ab836001600160a01b038416611597565b60006104ab836001600160a01b0384166115e1565b81546000908210610d655760405162461bcd60e51b8152600401610326906120e1565b826000018281548110610d7457fe5b9060005260206000200154905092915050565b60009081526001919091016020526040902054151590565b5490565b610dab611ba2565b6000825111610dcc5760405162461bcd60e51b815260040161032690612232565b506040805180820190915281518152602082810190820152919050565b6060610df4826116a7565b610e105760405162461bcd60e51b81526004016103269061264b565b6000610e1b836116d3565b90506060816001600160401b0381118015610e3557600080fd5b50604051908082528060200260200182016040528015610e6f57816020015b610e5c611ba2565b815260200190600190039081610e545790505b5090506000610e818560200151611740565b85519091508114610ea45760405162461bcd60e51b8152600401610326906125b6565b6000610eb386602001516117d9565b60208701510190506000805b85811015610f0a57610ed083611740565b9150604051806040016040528083815260200184815250858281518110610ef357fe5b602090810291909101015291810191600101610ebf565b50929695505050505050565b6000610f21826116a7565b15610f3e5760405162461bcd60e51b8152600401610326906121b7565b815160211015610f605760405162461bcd60e51b81526004016103269061254a565b6000610f6f8360200151611740565b83519091508114610f925760405162461bcd60e51b8152600401610326906126d1565b6000610fa184602001516117d9565b84516020808701518301805193945091849003929190831015610fcb57826020036101000a820491505b5095945050505050565b60606000610fe68360200151611740565b835190915081146110095760405162461bcd60e51b8152600401610326906122a0565b600061101884602001516117d9565b84519091508190036060816001600160401b038111801561103857600080fd5b506040519080825280601f01601f191660200182016040528015611063576020820181803683370190505b5090506000816020019050610fcb84886020015101828561183c565b604080516020810190915260008152815160609190156104ae576000806110a7600086611887565b60f81c905060018114806110be57508060ff166003145b1561114c5760018551600202036001600160401b03811180156110e057600080fd5b506040519080825280601f01601f19166020018201604052801561110b576020820181803683370190505b509250600061111b600187611887565b9050808460008151811061112b57fe5b60200101906001600160f81b031916908160001a905350600192505061119c565b60028551600202036001600160401b038111801561116957600080fd5b506040519080825280601f01601f191660200182016040528015611194576020820181803683370190505b509250600091505b60ff82165b83518110156111e7576111bc8360ff16820360020187611887565b8482815181106111c857fe5b60200101906001600160f81b031916908160001a9053506001016111a1565b50505092915050565b60006111fb826116a7565b156112185760405162461bcd60e51b815260040161032690612384565b81516015146112395760405162461bcd60e51b815260040161032690612718565b6104ae82610f16565b600061124c611ba2565b61125584610da3565b9050606061126282610de9565b9050606080856000826112748b61107f565b9050805160001415611290576000975050505050505050611481565b60005b86518110156114785781518311156112b657600098505050505050505050611481565b6112d28782815181106112c557fe5b60200260200101516118e4565b9550858051906020012084146112f357600098505050505050505050611481565b611302878281518110610b1d57fe5b94508451601114156113bf57815183141561135e578c8051906020012061132f86601081518110610a4a57fe5b80519060200120141561134d57600198505050505050505050611481565b600098505050505050505050611481565b600082848151811061136c57fe5b016020015160f81c905060108111156113915760009950505050505050505050611481565b6113b0868260ff16815181106113a357fe5b602002602001015161194a565b94505060019290920191611470565b84516002141561134d5760006113e56113de87600081518110610a4a57fe5b84866119ab565b90508251818501141561143b578d8051906020012061140a87600181518110610a4a57fe5b8051906020012014156114295760019950505050505050505050611481565b60009950505050505050505050611481565b806114525760009950505050505050505050611481565b8084019350611467866001815181106113a357fe5b94506114709050565b600101611293565b50505050505050505b949350505050565b600480546040516320a9cea560e11b81526000928392839283926001600160a01b03909216916341539d4a916114c1918a910161204e565b60a06040518083038186803b1580156114d957600080fd5b505afa1580156114ed573d6000803e3d6000fd5b505050506040513d601f19601f820116820180604052508101906115119190611cbd565b509350509250925061156e61152f838c611a8990919063ffffffff16565b84878d8d8d8d6040516020016115489493929190611ee0565b60405160208183030381529060405280519060200120611ab1909392919063ffffffff16565b61158a5760405162461bcd60e51b8152600401610326906124d2565b9998505050505050505050565b60006115a38383610d87565b6115d9575081546001818101845560008481526020808220909301849055845484825282860190935260409020919091556104ae565b5060006104ae565b6000818152600183016020526040812054801561169d578354600019808301919081019060009087908390811061161457fe5b906000526020600020015490508087600001848154811061163157fe5b60009182526020808320909101929092558281526001898101909252604090209084019055865487908061166157fe5b600190038181906000526020600020016000905590558660010160008781526020019081526020016000206000905560019450505050506104ae565b60009150506104ae565b6020810151805160009190821a9060c08210156116c9576000925050506102e7565b5060019392505050565b6000806000905060006116e984602001516117d9565b602085015185519181019250015b808210156117375761170882611740565b820191508082111561172c5760405162461bcd60e51b815260040161032690612338565b6001909201916116f7565b50909392505050565b80516000908190811a608081101561175b57600191506117d2565b60b881101561177057607e19810191506117d2565b60c081101561179d5760b78103600185019450806020036101000a855104600182018101935050506117d2565b60f88110156117b25760be19810191506117d2565b60f78103600185019450806020036101000a855104600182018101935050505b5092915050565b8051600090811a60808110156117f35760009150506102e7565b60b881108061180e575060c0811080159061180e575060f881105b1561181d5760019150506102e7565b60c08110156118315760b5190190506102e7565b60f5190190506102e7565b8061184657611882565b5b60208110611866578251825260209283019290910190601f1901611847565b8251825160208390036101000a60001901801990921691161782525b505050565b600060028306156118b85760108260028504815181106118a357fe5b016020015160f81c816118b257fe5b066118da565b60108260028504815181106118c957fe5b016020015160f81c816118d857fe5b045b60f81b9392505050565b60608082600001516001600160401b038111801561190157600080fd5b506040519080825280601f01601f19166020018201604052801561192c576020820181803683370190505b50905060008160200190506117d2846020015182866000015161183c565b60008061195a8360200151611740565b8351909150811461197d5760405162461bcd60e51b8152600401610326906125fd565b825160211461199e5760405162461bcd60e51b815260040161032690612123565b5050602001516001015190565b60008060606119b98661107f565b9050606081516001600160401b03811180156119d457600080fd5b506040519080825280601f01601f1916602001820160405280156119ff576020820181803683370190505b509050845b82518601811015611a59576000878281518110611a1d57fe5b602001015160f81c60f81b9050808388840381518110611a3957fe5b60200101906001600160f81b031916908160001a90535050600101611a04565b50808051906020012082805190602001201415611a795781519250611a7e565b600092505b509095945050505050565b600082821115611aab5760405162461bcd60e51b815260040161032690612269565b50900390565b60006020825181611abe57fe5b0615611adc5760405162461bcd60e51b81526004016103269061243e565b60006020835181611ae957fe5b0490508060020a8510611b0e5760405162461bcd60e51b81526004016103269061246c565b60008660205b85518111611b945785810151925060028806611b5a578183604051602001611b3d929190611e44565b604051602081830303815290604052805190602001209150611b86565b8282604051602001611b6d929190611e44565b6040516020818303038152906040528051906020012091505b600288049750602001611b14565b509094149695505050505050565b604051806040016040528060008152602001600081525090565b80356104ae81612892565b600060208284031215611bd8578081fd5b8135611be381612892565b9392505050565b60008060208385031215611bfc578081fd5b82356001600160401b0380821115611c12578283fd5b81850186601f820112611c23578384fd5b8035925081831115611c33578384fd5b8660208085028301011115611c46578384fd5b60200196919550909350505050565b600060208284031215611c66578081fd5b5035919050565b60008060408385031215611c7f578182fd5b823591506020830135611c9181612892565b809150509250929050565b60008060408385031215611cae578182fd5b50508035926020909101359150565b600080600080600060a08688031215611cd4578081fd5b855194506020860151935060408601519250606086015191506080860151611cfb81612892565b809150509295509295909350565b600060208284031215611d1a578081fd5b81356001600160401b03811115611d2f578182fd5b80830184601f820112611d40578283fd5b80359150611d55611d5083612833565b61280d565b828152856020848401011115611d69578384fd5b82602083016020830137918201602001929092529392505050565b600060208284031215611d95578081fd5b81516001600160401b03811115611daa578182fd5b80830184601f820112611dbb578283fd5b80519150611dcb611d5083612833565b828152856020848401011115611ddf578384fd5b611df0836020830160208501612862565b95945050505050565b600060208284031215611e0a578081fd5b813560ff81168114611be3578182fd5b60008284528282602086013780602084860101526020601f19601f85011685010190509392505050565b918252602082015260400190565b60008851611e64818460208d01612862565b80830160ff60f81b8a60f81b1681526bffffffffffffffffffffffff198960601b1660018201528760158201528660358201528486605583013790930160550190815298975050505050505050565b60008482528351611ecb816020850160208801612862565b60209201918201929092526040019392505050565b93845260208401929092526040830152606082015260800190565b6001600160a01b0391909116815260200190565b600060018060a01b0384168252604060208301528251806040840152611f3c816060850160208701612862565b601f01601f1916919091016060019392505050565b602080825281810183905260009060408084018583028501820187855b8881101561203557878303603f190184528135368b9003607e19018112611f93578788fd5b6080908b018035611fa3816128a7565b60ff1685528087016001600160a01b03611fbf828b8501611bbc565b16868a015235878601526060818101359036839003601e19018212611fe2578a8bfd5b828201803592506001600160401b03831115611ffc578b8cfd5b82360384131561200a578b8cfd5b848289015261201e858901848d8401611e1a565b988b01989750505093880193505050600101611f6e565b509098975050505050505050565b901515815260200190565b90815260200190565b6000602080830181845282855460018082166000811461207e576001811461209c576120d4565b60028304607f16855260ff19831660408901526060880193506120d4565b600283048086526120ac8a612856565b885b828110156120ca5781548b8201604001529084019088016120ae565b8a01604001955050505b5091979650505050505050565b60208082526022908201527f456e756d657261626c655365743a20696e646578206f7574206f6620626f756e604082015261647360f01b606082015260800190565b60208082526025908201527f524c505265616465723a20494e56414c49445f55494e545f5354524943545f4c60408201526408a9c8ea8960db1b606082015260800190565b6020808252602f908201527f416363657373436f6e74726f6c3a2073656e646572206d75737420626520616e60408201526e0818591b5a5b881d1bc819dc985b9d608a1b606082015260800190565b6020808252818101527f524c505265616465723a204445434f44494e475f4c4953545f41535f55494e54604082015260600190565b60208082526026908201527f4f776e61626c653a206e6577206f776e657220697320746865207a65726f206160408201526564647265737360d01b606082015260800190565b6020808252601f908201527f524c505265616465723a20494e56414c49445f42595445535f4c454e47544800604082015260600190565b6020808252601e908201527f536166654d6174683a207375627472616374696f6e206f766572666c6f770000604082015260600190565b60208082526028908201527f524c505265616465723a2042595445535f4445434f4445445f4c454e4754485f60408201526709a92a69a82a886960c31b606082015260800190565b60208082526030908201527f416363657373436f6e74726f6c3a2073656e646572206d75737420626520616e60408201526f2061646d696e20746f207265766f6b6560801b606082015260800190565b6020808252602c908201527f524c505265616465723a204e554d5f4954454d535f4445434f4445445f4c454e60408201526b08ea890be9a92a69a82a886960a31b606082015260800190565b60208082526023908201527f524c505265616465723a204445434f44494e475f4c4953545f41535f4144445260408201526245535360e81b606082015260800190565b60208082526022908201527f526f6f7454756e6e656c3a20455849545f414c52454144595f50524f43455353604082015261115160f21b606082015260800190565b6020808252818101527f4f776e61626c653a2063616c6c6572206973206e6f7420746865206f776e6572604082015260600190565b602080825260149082015273092dcecc2d8d2c840e0e4dedecc40d8cadccee8d60631b604082015260600190565b6020808252601590820152744c65616620696e64657820697320746f6f2062696760581b604082015260600190565b6020808252601d908201527f526f6f7454756e6e656c3a20494e56414c49445f5349474e4154555245000000604082015260600190565b6020808252601a908201527f526f6f7454756e6e656c3a20494e56414c49445f484541444552000000000000604082015260600190565b60208082526021908201527f526f6f7454756e6e656c3a20494e56414c49445f524543454950545f50524f4f6040820152602360f91b606082015260800190565b6020808252601e908201527f524c505265616465723a20494e56414c49445f55494e545f4c454e4754480000604082015260600190565b6020808252818101527f526f6f7454756e6e656c3a20494e56414c49445f4348494c445f54554e4e454c604082015260600190565b60208082526027908201527f524c505265616465723a204c4953545f4445434f4445445f4c454e4754485f4d604082015266092a69a82a886960cb1b606082015260800190565b6020808252602e908201527f524c505265616465723a2055494e545f5354524943545f4445434f4445445f4c60408201526d08a9c8ea890be9a92a69a82a886960931b606082015260800190565b60208082526018908201527f524c505265616465723a204954454d5f4e4f545f4c4953540000000000000000604082015260600190565b6020808252602f908201527f416363657373436f6e74726f6c3a2063616e206f6e6c792072656e6f756e636560408201526e103937b632b9903337b91039b2b63360891b606082015260800190565b60208082526027908201527f524c505265616465723a2055494e545f4445434f4445445f4c454e4754485f4d604082015266092a69a82a886960cb1b606082015260800190565b60208082526021908201527f524c505265616465723a20494e56414c49445f414444524553535f4c454e47546040820152600960fb1b606082015260800190565b60208082526028908201527f526f6f7454756e6e656c3a20494e56414c49445f4348494c445f54554e4e454c6040820152675f4144445245535360c01b606082015260800190565b6000808335601e198436030181126127b7578283fd5b808401803592506001600160401b038311156127d1578384fd5b602001925050368190038213156127e757600080fd5b9250929050565b60008235607e19833603018112612803578182fd5b9190910192915050565b6040518181016001600160401b038111828210171561282b57600080fd5b604052919050565b60006001600160401b03821115612848578081fd5b50601f01601f191660200190565b60009081526020902090565b60005b8381101561287d578181015183820152602001612865565b8381111561288c576000848401525b50505050565b6001600160a01b0381168114610d1557600080fd5b60ff81168114610d1557600080fdfea2646970667358221220b1d157c27357347ed9e4ee10bfacadf1266192cba5ef51424c0efe896c90416a64736f6c634300060600338be0079c531659141344cd1fd0a4f28419497f9722a3daafe3b4186f6b6457e0",
  "devdoc": {
    "methods": {
      "constructor": {
        "params": {
          "_checkpointManager": "Address of the checkpoint manager",
          "_childTunnel": "Address of the child tunnel",
          "_owner": "Owner of this contract"
        }
      },
      "execute((uint8,address,uint256,bytes)[])": {
        "params": {
          "messages": "Array of Message's that will be encoded and sent to the child chain"
        }
      },
      "getRoleAdmin(bytes32)": {
        "details": "Returns the admin role that controls `role`. See {grantRole} and {revokeRole}.     * To change a role's admin, use {_setRoleAdmin}."
      },
      "getRoleMember(bytes32,uint256)": {
        "details": "Returns one of the accounts that have `role`. `index` must be a value between 0 and {getRoleMemberCount}, non-inclusive.     * Role bearers are not sorted in any particular way, and their ordering may change at any point.     * WARNING: When using {getRoleMember} and {getRoleMemberCount}, make sure you perform all queries on the same block. See the following https://forum.openzeppelin.com/t/iterating-over-elements-on-enumerableset-in-openzeppelin-contracts/2296[forum post] for more information."
      },
      "getRoleMemberCount(bytes32)": {
        "details": "Returns the number of accounts that have `role`. Can be used together with {getRoleMember} to enumerate all bearers of a role."
      },
      "grantRole(bytes32,address)": {
        "details": "Grants `role` to `account`.     * If `account` had not been already granted `role`, emits a {RoleGranted} event.     * Requirements:     * - the caller must have ``role``'s admin role."
      },
      "hasRole(bytes32,address)": {
        "details": "Returns `true` if `account` has been granted `role`."
      },
      "owner()": {
        "details": "Returns the address of the current owner."
      },
      "receiveMessage(bytes)": {
        "details": "This function verifies if the transaction actually happened on child chain",
        "params": {
          "inputData": "RLP encoded data of the reference tx containing following list of fields 0 - headerNumber - Checkpoint header block number containing the reference tx 1 - blockProof - Proof that the block header (in the child chain) is a leaf in the submitted merkle root 2 - blockNumber - Block number containing the reference tx on child chain 3 - blockTime - Reference tx block time 4 - txRoot - Transactions root of block 5 - receiptRoot - Receipts root of block 6 - receipt - Receipt of the reference transaction 7 - receiptProof - Merkle proof of the reference receipt 8 - branchMask - 32 bits denoting the path of receipt in merkle tree 9 - receiptLogIndex - Log Index to read from the receipt"
        }
      },
      "renounceOwnership()": {
        "details": "Leaves the contract without owner. It will not be possible to call `onlyOwner` functions anymore. Can only be called by the current owner.     * NOTE: Renouncing ownership will leave the contract without an owner, thereby removing any functionality that is only available to the owner."
      },
      "renounceRole(bytes32,address)": {
        "details": "Revokes `role` from the calling account.     * Roles are often managed via {grantRole} and {revokeRole}: this function's purpose is to provide a mechanism for accounts to lose their privileges if they are compromised (such as when a trusted device is misplaced).     * If the calling account had been granted `role`, emits a {RoleRevoked} event.     * Requirements:     * - the caller must be `account`."
      },
      "revokeRole(bytes32,address)": {
        "details": "Revokes `role` from `account`.     * If `account` had been granted `role`, emits a {RoleRevoked} event.     * Requirements:     * - the caller must have ``role``'s admin role."
      },
      "setCheckpointManager(address)": {
        "details": "This should be the plasma contract responsible for keeping track of checkpoints",
        "params": {
          "newCheckpointManager": "address of checkpoint manager contract"
        }
      },
      "setChildTunnel(address)": {
        "details": "This should be the contract responsible to receive data bytes on child chain",
        "params": {
          "newChildTunnel": "address of child tunnel contract"
        }
      },
      "setStateSender(address)": {
        "details": "This should be the state sender from plasma contracts It is used to send bytes from root to child chain",
        "params": {
          "newStateSender": "address of state sender contract"
        }
      },
      "transferOwnership(address)": {
        "details": "Transfers ownership of the contract to a new account (`newOwner`). Can only be called by the current owner."
      }
    },
    "title": "EVMBridgeRoot lives on the parent chain (e.g. eth mainnet) and sends messages to a child chain"
  },
  "userdoc": {
    "methods": {
      "constructor": "Contract constructor",
      "execute((uint8,address,uint256,bytes)[])": {
        "notice": "Structure of a message to be sent to the child chain"
      },
      "receiveMessage(bytes)": {
        "notice": "receive message from  L2 to L1, validated by proof"
      },
      "setCheckpointManager(address)": {
        "notice": "Set the checkpoint manager, callable only by admins"
      },
      "setChildTunnel(address)": {
        "notice": "Set the child chain tunnel, callable only by admins"
      },
      "setStateSender(address)": {
        "notice": "Set the state sender, callable only by admins"
      }
    }
  },
  "storageLayout": {
    "storage": [
      {
        "astId": 2061,
        "contract": "contracts/EVMBridgeRoot.sol:EVMBridgeRoot",
        "label": "_owner",
        "offset": 0,
        "slot": "0",
        "type": "t_address"
      },
      {
        "astId": 1793,
        "contract": "contracts/EVMBridgeRoot.sol:EVMBridgeRoot",
        "label": "_roles",
        "offset": 0,
        "slot": "1",
        "type": "t_mapping(t_bytes32,t_struct(RoleData)1789_storage)"
      },
      {
        "astId": 7,
        "contract": "contracts/EVMBridgeRoot.sol:EVMBridgeRoot",
        "label": "_revertMsg",
        "offset": 0,
        "slot": "2",
        "type": "t_string_storage"
      },
      {
        "astId": 1376,
        "contract": "contracts/EVMBridgeRoot.sol:EVMBridgeRoot",
        "label": "stateSender",
        "offset": 0,
        "slot": "3",
        "type": "t_contract(IStateSender)1270"
      },
      {
        "astId": 1378,
        "contract": "contracts/EVMBridgeRoot.sol:EVMBridgeRoot",
        "label": "checkpointManager",
        "offset": 0,
        "slot": "4",
        "type": "t_contract(ICheckpointManager)1260"
      },
      {
        "astId": 1380,
        "contract": "contracts/EVMBridgeRoot.sol:EVMBridgeRoot",
        "label": "childTunnel",
        "offset": 0,
        "slot": "5",
        "type": "t_address"
      },
      {
        "astId": 1384,
        "contract": "contracts/EVMBridgeRoot.sol:EVMBridgeRoot",
        "label": "processedExits",
        "offset": 0,
        "slot": "6",
        "type": "t_mapping(t_bytes32,t_bool)"
      }
    ],
    "types": {
      "t_address": {
        "encoding": "inplace",
        "label": "address",
        "numberOfBytes": "20"
      },
      "t_array(t_bytes32)dyn_storage": {
        "base": "t_bytes32",
        "encoding": "dynamic_array",
        "label": "bytes32[]",
        "numberOfBytes": "32"
      },
      "t_bool": {
        "encoding": "inplace",
        "label": "bool",
        "numberOfBytes": "1"
      },
      "t_bytes32": {
        "encoding": "inplace",
        "label": "bytes32",
        "numberOfBytes": "32"
      },
      "t_contract(ICheckpointManager)1260": {
        "encoding": "inplace",
        "label": "contract ICheckpointManager",
        "numberOfBytes": "20"
      },
      "t_contract(IStateSender)1270": {
        "encoding": "inplace",
        "label": "contract IStateSender",
        "numberOfBytes": "20"
      },
      "t_mapping(t_bytes32,t_bool)": {
        "encoding": "mapping",
        "key": "t_bytes32",
        "label": "mapping(bytes32 => bool)",
        "numberOfBytes": "32",
        "value": "t_bool"
      },
      "t_mapping(t_bytes32,t_struct(RoleData)1789_storage)": {
        "encoding": "mapping",
        "key": "t_bytes32",
        "label": "mapping(bytes32 => struct AccessControl.RoleData)",
        "numberOfBytes": "32",
        "value": "t_struct(RoleData)1789_storage"
      },
      "t_mapping(t_bytes32,t_uint256)": {
        "encoding": "mapping",
        "key": "t_bytes32",
        "label": "mapping(bytes32 => uint256)",
        "numberOfBytes": "32",
        "value": "t_uint256"
      },
      "t_string_storage": {
        "encoding": "bytes",
        "label": "string",
        "numberOfBytes": "32"
      },
      "t_struct(AddressSet)3113_storage": {
        "encoding": "inplace",
        "label": "struct EnumerableSet.AddressSet",
        "members": [
          {
            "astId": 3112,
            "contract": "contracts/EVMBridgeRoot.sol:EVMBridgeRoot",
            "label": "_inner",
            "offset": 0,
            "slot": "0",
            "type": "t_struct(Set)2848_storage"
          }
        ],
        "numberOfBytes": "64"
      },
      "t_struct(RoleData)1789_storage": {
        "encoding": "inplace",
        "label": "struct AccessControl.RoleData",
        "members": [
          {
            "astId": 1786,
            "contract": "contracts/EVMBridgeRoot.sol:EVMBridgeRoot",
            "label": "members",
            "offset": 0,
            "slot": "0",
            "type": "t_struct(AddressSet)3113_storage"
          },
          {
            "astId": 1788,
            "contract": "contracts/EVMBridgeRoot.sol:EVMBridgeRoot",
            "label": "adminRole",
            "offset": 0,
            "slot": "2",
            "type": "t_bytes32"
          }
        ],
        "numberOfBytes": "96"
      },
      "t_struct(Set)2848_storage": {
        "encoding": "inplace",
        "label": "struct EnumerableSet.Set",
        "members": [
          {
            "astId": 2843,
            "contract": "contracts/EVMBridgeRoot.sol:EVMBridgeRoot",
            "label": "_values",
            "offset": 0,
            "slot": "0",
            "type": "t_array(t_bytes32)dyn_storage"
          },
          {
            "astId": 2847,
            "contract": "contracts/EVMBridgeRoot.sol:EVMBridgeRoot",
            "label": "_indexes",
            "offset": 0,
            "slot": "1",
            "type": "t_mapping(t_bytes32,t_uint256)"
          }
        ],
        "numberOfBytes": "64"
      },
      "t_uint256": {
        "encoding": "inplace",
        "label": "uint256",
        "numberOfBytes": "32"
      }
    }
  }
}